{
  "_format": "hh-sol-artifact-1",
  "contractName": "Three",
  "sourceName": "contracts/Three.sol",
  "abi": [
    {
      "inputs": [
        {
          "internalType": "address",
          "name": "lemonTokenAddress",
          "type": "address"
        }
      ],
      "stateMutability": "nonpayable",
      "type": "constructor"
    },
    {
      "anonymous": false,
      "inputs": [
        {
          "indexed": true,
          "internalType": "address",
          "name": "owner",
          "type": "address"
        },
        {
          "indexed": true,
          "internalType": "address",
          "name": "spender",
          "type": "address"
        },
        {
          "indexed": false,
          "internalType": "uint256",
          "name": "value",
          "type": "uint256"
        }
      ],
      "name": "Approval",
      "type": "event"
    },
    {
      "anonymous": false,
      "inputs": [
        {
          "indexed": true,
          "internalType": "address",
          "name": "previousOwner",
          "type": "address"
        },
        {
          "indexed": true,
          "internalType": "address",
          "name": "newOwner",
          "type": "address"
        }
      ],
      "name": "OwnershipTransferred",
      "type": "event"
    },
    {
      "anonymous": false,
      "inputs": [
        {
          "indexed": true,
          "internalType": "address",
          "name": "from",
          "type": "address"
        },
        {
          "indexed": true,
          "internalType": "address",
          "name": "to",
          "type": "address"
        },
        {
          "indexed": false,
          "internalType": "uint256",
          "name": "value",
          "type": "uint256"
        }
      ],
      "name": "Transfer",
      "type": "event"
    },
    {
      "inputs": [],
      "name": "BASE_RATE",
      "outputs": [
        {
          "internalType": "uint256",
          "name": "",
          "type": "uint256"
        }
      ],
      "stateMutability": "view",
      "type": "function"
    },
    {
      "inputs": [],
      "name": "BASE_RATE_OP",
      "outputs": [
        {
          "internalType": "uint256",
          "name": "",
          "type": "uint256"
        }
      ],
      "stateMutability": "view",
      "type": "function"
    },
    {
      "inputs": [],
      "name": "START",
      "outputs": [
        {
          "internalType": "uint256",
          "name": "",
          "type": "uint256"
        }
      ],
      "stateMutability": "view",
      "type": "function"
    },
    {
      "inputs": [
        {
          "internalType": "address",
          "name": "owner",
          "type": "address"
        },
        {
          "internalType": "address",
          "name": "spender",
          "type": "address"
        }
      ],
      "name": "allowance",
      "outputs": [
        {
          "internalType": "uint256",
          "name": "",
          "type": "uint256"
        }
      ],
      "stateMutability": "view",
      "type": "function"
    },
    {
      "inputs": [
        {
          "internalType": "address",
          "name": "spender",
          "type": "address"
        },
        {
          "internalType": "uint256",
          "name": "amount",
          "type": "uint256"
        }
      ],
      "name": "approve",
      "outputs": [
        {
          "internalType": "bool",
          "name": "",
          "type": "bool"
        }
      ],
      "stateMutability": "nonpayable",
      "type": "function"
    },
    {
      "inputs": [
        {
          "internalType": "address",
          "name": "account",
          "type": "address"
        }
      ],
      "name": "balanceOf",
      "outputs": [
        {
          "internalType": "uint256",
          "name": "",
          "type": "uint256"
        }
      ],
      "stateMutability": "view",
      "type": "function"
    },
    {
      "inputs": [
        {
          "internalType": "uint256",
          "name": "amount",
          "type": "uint256"
        }
      ],
      "name": "burn",
      "outputs": [],
      "stateMutability": "nonpayable",
      "type": "function"
    },
    {
      "inputs": [
        {
          "internalType": "address",
          "name": "account",
          "type": "address"
        },
        {
          "internalType": "uint256",
          "name": "amount",
          "type": "uint256"
        }
      ],
      "name": "burnFrom",
      "outputs": [],
      "stateMutability": "nonpayable",
      "type": "function"
    },
    {
      "inputs": [],
      "name": "claimGenReward",
      "outputs": [],
      "stateMutability": "nonpayable",
      "type": "function"
    },
    {
      "inputs": [],
      "name": "claimNormalReward",
      "outputs": [],
      "stateMutability": "nonpayable",
      "type": "function"
    },
    {
      "inputs": [],
      "name": "decimals",
      "outputs": [
        {
          "internalType": "uint8",
          "name": "",
          "type": "uint8"
        }
      ],
      "stateMutability": "view",
      "type": "function"
    },
    {
      "inputs": [
        {
          "internalType": "address",
          "name": "spender",
          "type": "address"
        },
        {
          "internalType": "uint256",
          "name": "subtractedValue",
          "type": "uint256"
        }
      ],
      "name": "decreaseAllowance",
      "outputs": [
        {
          "internalType": "bool",
          "name": "",
          "type": "bool"
        }
      ],
      "stateMutability": "nonpayable",
      "type": "function"
    },
    {
      "inputs": [
        {
          "internalType": "address",
          "name": "user",
          "type": "address"
        }
      ],
      "name": "getTotalClaimableFromGenesis",
      "outputs": [
        {
          "internalType": "uint256",
          "name": "",
          "type": "uint256"
        }
      ],
      "stateMutability": "view",
      "type": "function"
    },
    {
      "inputs": [
        {
          "internalType": "address",
          "name": "user",
          "type": "address"
        }
      ],
      "name": "getTotalClaimableFromLemmys",
      "outputs": [
        {
          "internalType": "uint256",
          "name": "",
          "type": "uint256"
        }
      ],
      "stateMutability": "view",
      "type": "function"
    },
    {
      "inputs": [
        {
          "internalType": "address",
          "name": "spender",
          "type": "address"
        },
        {
          "internalType": "uint256",
          "name": "addedValue",
          "type": "uint256"
        }
      ],
      "name": "increaseAllowance",
      "outputs": [
        {
          "internalType": "bool",
          "name": "",
          "type": "bool"
        }
      ],
      "stateMutability": "nonpayable",
      "type": "function"
    },
    {
      "inputs": [
        {
          "internalType": "address",
          "name": "",
          "type": "address"
        }
      ],
      "name": "lastUpdate",
      "outputs": [
        {
          "internalType": "uint256",
          "name": "",
          "type": "uint256"
        }
      ],
      "stateMutability": "view",
      "type": "function"
    },
    {
      "inputs": [],
      "name": "lemonGenesis",
      "outputs": [
        {
          "internalType": "contract iLemonGenesis",
          "name": "",
          "type": "address"
        }
      ],
      "stateMutability": "view",
      "type": "function"
    },
    {
      "inputs": [],
      "name": "lemonToken",
      "outputs": [
        {
          "internalType": "contract iLemonToken",
          "name": "",
          "type": "address"
        }
      ],
      "stateMutability": "view",
      "type": "function"
    },
    {
      "inputs": [],
      "name": "name",
      "outputs": [
        {
          "internalType": "string",
          "name": "",
          "type": "string"
        }
      ],
      "stateMutability": "view",
      "type": "function"
    },
    {
      "inputs": [],
      "name": "owner",
      "outputs": [
        {
          "internalType": "address",
          "name": "",
          "type": "address"
        }
      ],
      "stateMutability": "view",
      "type": "function"
    },
    {
      "inputs": [],
      "name": "pauseJuiceMachine",
      "outputs": [
        {
          "internalType": "bool",
          "name": "",
          "type": "bool"
        }
      ],
      "stateMutability": "view",
      "type": "function"
    },
    {
      "inputs": [],
      "name": "renounceOwnership",
      "outputs": [],
      "stateMutability": "nonpayable",
      "type": "function"
    },
    {
      "inputs": [
        {
          "internalType": "address",
          "name": "",
          "type": "address"
        }
      ],
      "name": "rewards",
      "outputs": [
        {
          "internalType": "uint256",
          "name": "",
          "type": "uint256"
        }
      ],
      "stateMutability": "view",
      "type": "function"
    },
    {
      "inputs": [
        {
          "internalType": "address",
          "name": "_newGenAddress",
          "type": "address"
        }
      ],
      "name": "setGenContractAddress",
      "outputs": [],
      "stateMutability": "nonpayable",
      "type": "function"
    },
    {
      "inputs": [],
      "name": "symbol",
      "outputs": [
        {
          "internalType": "string",
          "name": "",
          "type": "string"
        }
      ],
      "stateMutability": "view",
      "type": "function"
    },
    {
      "inputs": [],
      "name": "toggleReward",
      "outputs": [],
      "stateMutability": "nonpayable",
      "type": "function"
    },
    {
      "inputs": [],
      "name": "totalSupply",
      "outputs": [
        {
          "internalType": "uint256",
          "name": "",
          "type": "uint256"
        }
      ],
      "stateMutability": "view",
      "type": "function"
    },
    {
      "inputs": [
        {
          "internalType": "address",
          "name": "recipient",
          "type": "address"
        },
        {
          "internalType": "uint256",
          "name": "amount",
          "type": "uint256"
        }
      ],
      "name": "transfer",
      "outputs": [
        {
          "internalType": "bool",
          "name": "",
          "type": "bool"
        }
      ],
      "stateMutability": "nonpayable",
      "type": "function"
    },
    {
      "inputs": [
        {
          "internalType": "address",
          "name": "sender",
          "type": "address"
        },
        {
          "internalType": "address",
          "name": "recipient",
          "type": "address"
        },
        {
          "internalType": "uint256",
          "name": "amount",
          "type": "uint256"
        }
      ],
      "name": "transferFrom",
      "outputs": [
        {
          "internalType": "bool",
          "name": "",
          "type": "bool"
        }
      ],
      "stateMutability": "nonpayable",
      "type": "function"
    },
    {
      "inputs": [
        {
          "internalType": "address",
          "name": "newOwner",
          "type": "address"
        }
      ],
      "name": "transferOwnership",
      "outputs": [],
      "stateMutability": "nonpayable",
      "type": "function"
    },
    {
      "inputs": [
        {
          "internalType": "address",
          "name": "from",
          "type": "address"
        },
        {
          "internalType": "address",
          "name": "to",
          "type": "address"
        }
      ],
      "name": "updateReward",
      "outputs": [],
      "stateMutability": "nonpayable",
      "type": "function"
    }
  ],
  "bytecode": "0x60806040526000600760006101000a81548160ff0219169083151502179055503480156200002c57600080fd5b50604051620030c4380380620030c48339818101604052810190620000529190620002f6565b6040518060400160405280600a81526020017f4c656d6f6e4a75696365000000000000000000000000000000000000000000008152506040518060400160405280600581526020017f4a554943450000000000000000000000000000000000000000000000000000008152508160039080519060200190620000d69291906200022f565b508060049080519060200190620000ef9291906200022f565b50505062000112620001066200016160201b60201c565b6200016960201b60201c565b80600a60006101000a81548173ffffffffffffffffffffffffffffffffffffffff021916908373ffffffffffffffffffffffffffffffffffffffff1602179055504260068190555050620003d5565b600033905090565b6000600560009054906101000a900473ffffffffffffffffffffffffffffffffffffffff16905081600560006101000a81548173ffffffffffffffffffffffffffffffffffffffff021916908373ffffffffffffffffffffffffffffffffffffffff1602179055508173ffffffffffffffffffffffffffffffffffffffff168173ffffffffffffffffffffffffffffffffffffffff167f8be0079c531659141344cd1fd0a4f28419497f9722a3daafe3b4186f6b6457e060405160405180910390a35050565b8280546200023d9062000356565b90600052602060002090601f016020900481019282620002615760008555620002ad565b82601f106200027c57805160ff1916838001178555620002ad565b82800160010185558215620002ad579182015b82811115620002ac5782518255916020019190600101906200028f565b5b509050620002bc9190620002c0565b5090565b5b80821115620002db576000816000905550600101620002c1565b5090565b600081519050620002f081620003bb565b92915050565b6000602082840312156200030957600080fd5b60006200031984828501620002df565b91505092915050565b60006200032f8262000336565b9050919050565b600073ffffffffffffffffffffffffffffffffffffffff82169050919050565b600060028204905060018216806200036f57607f821691505b602082108114156200038657620003856200038c565b5b50919050565b7f4e487b7100000000000000000000000000000000000000000000000000000000600052602260045260246000fd5b620003c68162000322565b8114620003d257600080fd5b50565b612cdf80620003e56000396000f3fe608060405234801561001057600080fd5b50600436106101e55760003560e01c8063715018a61161010f578063ac8724cf116100a2578063cb03fb1e11610071578063cb03fb1e14610560578063d230af3a14610590578063dd62ed3e146105ac578063f2fde38b146105dc576101e5565b8063ac8724cf14610510578063ba9a061a1461051a578063bf0ae78d14610538578063c06009bd14610556576101e5565b806395d89b41116100de57806395d89b41146104765780639f881a8d14610494578063a457c2d7146104b0578063a9059cbb146104e0576101e5565b8063715018a61461041457806379cc67901461041e57806386abeb4b1461043a5780638da5cb5b14610458576101e5565b806332f795dc116101875780634c2cd0b1116101565780634c2cd0b11461039e57806354e8c383146103bc5780636c593d3d146103da57806370a08231146103e4576101e5565b806332f795dc14610304578063395093511461033457806341910f901461036457806342966c6814610382576101e5565b806318160ddd116101c357806318160ddd1461026857806323b872dd14610286578063313ce567146102b657806331d6969f146102d4576101e5565b806306fdde03146101ea5780630700037d14610208578063095ea7b314610238575b600080fd5b6101f26105f8565b6040516101ff9190612792565b60405180910390f35b610222600480360381019061021d919061202f565b61068a565b60405161022f9190612974565b60405180910390f35b610252600480360381019061024d91906120e3565b6106a2565b60405161025f9190612741565b60405180910390f35b6102706106c0565b60405161027d9190612974565b60405180910390f35b6102a0600480360381019061029b9190612094565b6106ca565b6040516102ad9190612741565b60405180910390f35b6102be6107c2565b6040516102cb919061298f565b60405180910390f35b6102ee60048036038101906102e9919061202f565b6107cb565b6040516102fb9190612974565b60405180910390f35b61031e6004803603810190610319919061202f565b610827565b60405161032b9190612974565b60405180910390f35b61034e600480360381019061034991906120e3565b610883565b60405161035b9190612741565b60405180910390f35b61036c61092f565b6040516103799190612974565b60405180910390f35b61039c6004803603810190610397919061211f565b61093b565b005b6103a661094f565b6040516103b39190612741565b60405180910390f35b6103c4610962565b6040516103d1919061275c565b60405180910390f35b6103e2610988565b005b6103fe60048036038101906103f9919061202f565b610abf565b60405161040b9190612974565b60405180910390f35b61041c610b07565b005b610438600480360381019061043391906120e3565b610b8f565b005b610442610c0a565b60405161044f9190612974565b60405180910390f35b610460610c16565b60405161046d9190612726565b60405180910390f35b61047e610c40565b60405161048b9190612792565b60405180910390f35b6104ae60048036038101906104a9919061202f565b610cd2565b005b6104ca60048036038101906104c591906120e3565b610d92565b6040516104d79190612741565b60405180910390f35b6104fa60048036038101906104f591906120e3565b610e7d565b6040516105079190612741565b60405180910390f35b610518610e9b565b005b610522610f43565b60405161052f9190612974565b60405180910390f35b610540610f49565b60405161054d9190612777565b60405180910390f35b61055e610f6f565b005b61057a6004803603810190610575919061202f565b6110a6565b6040516105879190612974565b60405180910390f35b6105aa60048036038101906105a59190612058565b6110be565b005b6105c660048036038101906105c19190612058565b611322565b6040516105d39190612974565b60405180910390f35b6105f660048036038101906105f1919061202f565b6113a9565b005b60606003805461060790612bab565b80601f016020809104026020016040519081016040528092919081815260200182805461063390612bab565b80156106805780601f1061065557610100808354040283529160200191610680565b820191906000526020600020905b81548152906001019060200180831161066357829003601f168201915b5050505050905090565b60086020528060005260406000206000915090505481565b60006106b66106af6114a1565b84846114a9565b6001905092915050565b6000600254905090565b60006106d7848484611674565b6000600160008673ffffffffffffffffffffffffffffffffffffffff1673ffffffffffffffffffffffffffffffffffffffff16815260200190815260200160002060006107226114a1565b73ffffffffffffffffffffffffffffffffffffffff1673ffffffffffffffffffffffffffffffffffffffff168152602001908152602001600020549050828110156107a2576040517f08c379a000000000000000000000000000000000000000000000000000000000815260040161079990612874565b60405180910390fd5b6107b6856107ae6114a1565b8584036114a9565b60019150509392505050565b60006012905090565b60006107d6826118f5565b600860008473ffffffffffffffffffffffffffffffffffffffff1673ffffffffffffffffffffffffffffffffffffffff1681526020019081526020016000205461082091906129c6565b9050919050565b600061083282611a6f565b600860008473ffffffffffffffffffffffffffffffffffffffff1673ffffffffffffffffffffffffffffffffffffffff1681526020019081526020016000205461087c91906129c6565b9050919050565b60006109256108906114a1565b84846001600061089e6114a1565b73ffffffffffffffffffffffffffffffffffffffff1673ffffffffffffffffffffffffffffffffffffffff16815260200190815260200160002060008873ffffffffffffffffffffffffffffffffffffffff1673ffffffffffffffffffffffffffffffffffffffff1681526020019081526020016000205461092091906129c6565b6114a9565b6001905092915050565b6729a2241af62c000081565b61094c6109466114a1565b82611be9565b50565b600760009054906101000a900460ff1681565b600b60009054906101000a900473ffffffffffffffffffffffffffffffffffffffff1681565b600760009054906101000a900460ff16156109d8576040517f08c379a00000000000000000000000000000000000000000000000000000000081526004016109cf90612854565b60405180910390fd5b610a34336109e5336118f5565b600860003373ffffffffffffffffffffffffffffffffffffffff1673ffffffffffffffffffffffffffffffffffffffff16815260200190815260200160002054610a2f91906129c6565b611dc0565b6000600860003373ffffffffffffffffffffffffffffffffffffffff1673ffffffffffffffffffffffffffffffffffffffff1681526020019081526020016000208190555042600960003373ffffffffffffffffffffffffffffffffffffffff1673ffffffffffffffffffffffffffffffffffffffff16815260200190815260200160002081905550565b60008060008373ffffffffffffffffffffffffffffffffffffffff1673ffffffffffffffffffffffffffffffffffffffff168152602001908152602001600020549050919050565b610b0f6114a1565b73ffffffffffffffffffffffffffffffffffffffff16610b2d610c16565b73ffffffffffffffffffffffffffffffffffffffff1614610b83576040517f08c379a0000000000000000000000000000000000000000000000000000000008152600401610b7a90612894565b60405180910390fd5b610b8d6000611f20565b565b6000610ba283610b9d6114a1565b611322565b905081811015610be7576040517f08c379a0000000000000000000000000000000000000000000000000000000008152600401610bde906128b4565b60405180910390fd5b610bfb83610bf36114a1565b8484036114a9565b610c058383611be9565b505050565b6753444835ec58000081565b6000600560009054906101000a900473ffffffffffffffffffffffffffffffffffffffff16905090565b606060048054610c4f90612bab565b80601f0160208091040260200160405190810160405280929190818152602001828054610c7b90612bab565b8015610cc85780601f10610c9d57610100808354040283529160200191610cc8565b820191906000526020600020905b815481529060010190602001808311610cab57829003601f168201915b5050505050905090565b610cda6114a1565b73ffffffffffffffffffffffffffffffffffffffff16610cf8610c16565b73ffffffffffffffffffffffffffffffffffffffff1614610d4e576040517f08c379a0000000000000000000000000000000000000000000000000000000008152600401610d4590612894565b60405180910390fd5b80600b60006101000a81548173ffffffffffffffffffffffffffffffffffffffff021916908373ffffffffffffffffffffffffffffffffffffffff16021790555050565b60008060016000610da16114a1565b73ffffffffffffffffffffffffffffffffffffffff1673ffffffffffffffffffffffffffffffffffffffff16815260200190815260200160002060008573ffffffffffffffffffffffffffffffffffffffff1673ffffffffffffffffffffffffffffffffffffffff16815260200190815260200160002054905082811015610e5e576040517f08c379a0000000000000000000000000000000000000000000000000000000008152600401610e5590612934565b60405180910390fd5b610e72610e696114a1565b858584036114a9565b600191505092915050565b6000610e91610e8a6114a1565b8484611674565b6001905092915050565b610ea36114a1565b73ffffffffffffffffffffffffffffffffffffffff16610ec1610c16565b73ffffffffffffffffffffffffffffffffffffffff1614610f17576040517f08c379a0000000000000000000000000000000000000000000000000000000008152600401610f0e90612894565b60405180910390fd5b600760009054906101000a900460ff1615600760006101000a81548160ff021916908315150217905550565b60065481565b600a60009054906101000a900473ffffffffffffffffffffffffffffffffffffffff1681565b600760009054906101000a900460ff1615610fbf576040517f08c379a0000000000000000000000000000000000000000000000000000000008152600401610fb690612854565b60405180910390fd5b61101b33610fcc33611a6f565b600860003373ffffffffffffffffffffffffffffffffffffffff1673ffffffffffffffffffffffffffffffffffffffff1681526020019081526020016000205461101691906129c6565b611dc0565b6000600860003373ffffffffffffffffffffffffffffffffffffffff1673ffffffffffffffffffffffffffffffffffffffff1681526020019081526020016000208190555042600960003373ffffffffffffffffffffffffffffffffffffffff1673ffffffffffffffffffffffffffffffffffffffff16815260200190815260200160002081905550565b60096020528060005260406000206000915090505481565b600a60009054906101000a900473ffffffffffffffffffffffffffffffffffffffff1673ffffffffffffffffffffffffffffffffffffffff163373ffffffffffffffffffffffffffffffffffffffff1614806111675750600b60009054906101000a900473ffffffffffffffffffffffffffffffffffffffff1673ffffffffffffffffffffffffffffffffffffffff163373ffffffffffffffffffffffffffffffffffffffff16145b61117057600080fd5b600073ffffffffffffffffffffffffffffffffffffffff168273ffffffffffffffffffffffffffffffffffffffff1614611247576111ad82611a6f565b600860008473ffffffffffffffffffffffffffffffffffffffff1673ffffffffffffffffffffffffffffffffffffffff16815260200190815260200160002060008282546111fb91906129c6565b9250508190555042600960008373ffffffffffffffffffffffffffffffffffffffff1673ffffffffffffffffffffffffffffffffffffffff168152602001908152602001600020819055505b600073ffffffffffffffffffffffffffffffffffffffff168173ffffffffffffffffffffffffffffffffffffffff161461131e5761128482611a6f565b600860008373ffffffffffffffffffffffffffffffffffffffff1673ffffffffffffffffffffffffffffffffffffffff16815260200190815260200160002060008282546112d291906129c6565b9250508190555042600960008473ffffffffffffffffffffffffffffffffffffffff1673ffffffffffffffffffffffffffffffffffffffff168152602001908152602001600020819055505b5050565b6000600160008473ffffffffffffffffffffffffffffffffffffffff1673ffffffffffffffffffffffffffffffffffffffff16815260200190815260200160002060008373ffffffffffffffffffffffffffffffffffffffff1673ffffffffffffffffffffffffffffffffffffffff16815260200190815260200160002054905092915050565b6113b16114a1565b73ffffffffffffffffffffffffffffffffffffffff166113cf610c16565b73ffffffffffffffffffffffffffffffffffffffff1614611425576040517f08c379a000000000000000000000000000000000000000000000000000000000815260040161141c90612894565b60405180910390fd5b600073ffffffffffffffffffffffffffffffffffffffff168173ffffffffffffffffffffffffffffffffffffffff161415611495576040517f08c379a000000000000000000000000000000000000000000000000000000000815260040161148c906127f4565b60405180910390fd5b61149e81611f20565b50565b600033905090565b600073ffffffffffffffffffffffffffffffffffffffff168373ffffffffffffffffffffffffffffffffffffffff161415611519576040517f08c379a000000000000000000000000000000000000000000000000000000000815260040161151090612914565b60405180910390fd5b600073ffffffffffffffffffffffffffffffffffffffff168273ffffffffffffffffffffffffffffffffffffffff161415611589576040517f08c379a000000000000000000000000000000000000000000000000000000000815260040161158090612814565b60405180910390fd5b80600160008573ffffffffffffffffffffffffffffffffffffffff1673ffffffffffffffffffffffffffffffffffffffff16815260200190815260200160002060008473ffffffffffffffffffffffffffffffffffffffff1673ffffffffffffffffffffffffffffffffffffffff168152602001908152602001600020819055508173ffffffffffffffffffffffffffffffffffffffff168373ffffffffffffffffffffffffffffffffffffffff167f8c5be1e5ebec7d5bd14f71427d1e84f3dd0314c0f7b2291e5b200ac8c7c3b925836040516116679190612974565b60405180910390a3505050565b600073ffffffffffffffffffffffffffffffffffffffff168373ffffffffffffffffffffffffffffffffffffffff1614156116e4576040517f08c379a00000000000000000000000000000000000000000000000000000000081526004016116db906128f4565b60405180910390fd5b600073ffffffffffffffffffffffffffffffffffffffff168273ffffffffffffffffffffffffffffffffffffffff161415611754576040517f08c379a000000000000000000000000000000000000000000000000000000000815260040161174b906127b4565b60405180910390fd5b61175f838383611fe6565b60008060008573ffffffffffffffffffffffffffffffffffffffff1673ffffffffffffffffffffffffffffffffffffffff168152602001908152602001600020549050818110156117e5576040517f08c379a00000000000000000000000000000000000000000000000000000000081526004016117dc90612834565b60405180910390fd5b8181036000808673ffffffffffffffffffffffffffffffffffffffff1673ffffffffffffffffffffffffffffffffffffffff16815260200190815260200160002081905550816000808573ffffffffffffffffffffffffffffffffffffffff1673ffffffffffffffffffffffffffffffffffffffff168152602001908152602001600020600082825461187891906129c6565b925050819055508273ffffffffffffffffffffffffffffffffffffffff168473ffffffffffffffffffffffffffffffffffffffff167fddf252ad1be2c89b69c2b068fc378daa952ba7f163c4a11628f55a4df523b3ef846040516118dc9190612974565b60405180910390a36118ef848484611feb565b50505050565b60006001600654600960008573ffffffffffffffffffffffffffffffffffffffff1673ffffffffffffffffffffffffffffffffffffffff16815260200190815260200160002054101561194a5760065461198b565b600960008473ffffffffffffffffffffffffffffffffffffffff1673ffffffffffffffffffffffffffffffffffffffff168152602001908152602001600020545b426119969190612aa7565b6753444835ec580000600b60009054906101000a900473ffffffffffffffffffffffffffffffffffffffff1673ffffffffffffffffffffffffffffffffffffffff166370a08231866040518263ffffffff1660e01b81526004016119fa9190612726565b60206040518083038186803b158015611a1257600080fd5b505afa158015611a26573d6000803e3d6000fd5b505050506040513d601f19601f82011682018060405250810190611a4a9190612148565b611a549190612a4d565b611a5e9190612a4d565b611a689190612a1c565b9050919050565b60006001600654600960008573ffffffffffffffffffffffffffffffffffffffff1673ffffffffffffffffffffffffffffffffffffffff168152602001908152602001600020541015611ac457600654611b05565b600960008473ffffffffffffffffffffffffffffffffffffffff1673ffffffffffffffffffffffffffffffffffffffff168152602001908152602001600020545b42611b109190612aa7565b6729a2241af62c0000600a60009054906101000a900473ffffffffffffffffffffffffffffffffffffffff1673ffffffffffffffffffffffffffffffffffffffff166370a08231866040518263ffffffff1660e01b8152600401611b749190612726565b60206040518083038186803b158015611b8c57600080fd5b505afa158015611ba0573d6000803e3d6000fd5b505050506040513d601f19601f82011682018060405250810190611bc49190612148565b611bce9190612a4d565b611bd89190612a4d565b611be29190612a1c565b9050919050565b600073ffffffffffffffffffffffffffffffffffffffff168273ffffffffffffffffffffffffffffffffffffffff161415611c59576040517f08c379a0000000000000000000000000000000000000000000000000000000008152600401611c50906128d4565b60405180910390fd5b611c6582600083611fe6565b60008060008473ffffffffffffffffffffffffffffffffffffffff1673ffffffffffffffffffffffffffffffffffffffff16815260200190815260200160002054905081811015611ceb576040517f08c379a0000000000000000000000000000000000000000000000000000000008152600401611ce2906127d4565b60405180910390fd5b8181036000808573ffffffffffffffffffffffffffffffffffffffff1673ffffffffffffffffffffffffffffffffffffffff168152602001908152602001600020819055508160026000828254611d429190612aa7565b92505081905550600073ffffffffffffffffffffffffffffffffffffffff168373ffffffffffffffffffffffffffffffffffffffff167fddf252ad1be2c89b69c2b068fc378daa952ba7f163c4a11628f55a4df523b3ef84604051611da79190612974565b60405180910390a3611dbb83600084611feb565b505050565b600073ffffffffffffffffffffffffffffffffffffffff168273ffffffffffffffffffffffffffffffffffffffff161415611e30576040517f08c379a0000000000000000000000000000000000000000000000000000000008152600401611e2790612954565b60405180910390fd5b611e3c60008383611fe6565b8060026000828254611e4e91906129c6565b92505081905550806000808473ffffffffffffffffffffffffffffffffffffffff1673ffffffffffffffffffffffffffffffffffffffff1681526020019081526020016000206000828254611ea391906129c6565b925050819055508173ffffffffffffffffffffffffffffffffffffffff16600073ffffffffffffffffffffffffffffffffffffffff167fddf252ad1be2c89b69c2b068fc378daa952ba7f163c4a11628f55a4df523b3ef83604051611f089190612974565b60405180910390a3611f1c60008383611feb565b5050565b6000600560009054906101000a900473ffffffffffffffffffffffffffffffffffffffff16905081600560006101000a81548173ffffffffffffffffffffffffffffffffffffffff021916908373ffffffffffffffffffffffffffffffffffffffff1602179055508173ffffffffffffffffffffffffffffffffffffffff168173ffffffffffffffffffffffffffffffffffffffff167f8be0079c531659141344cd1fd0a4f28419497f9722a3daafe3b4186f6b6457e060405160405180910390a35050565b505050565b505050565b600081359050611fff81612c7b565b92915050565b60008135905061201481612c92565b92915050565b60008151905061202981612c92565b92915050565b60006020828403121561204157600080fd5b600061204f84828501611ff0565b91505092915050565b6000806040838503121561206b57600080fd5b600061207985828601611ff0565b925050602061208a85828601611ff0565b9150509250929050565b6000806000606084860312156120a957600080fd5b60006120b786828701611ff0565b93505060206120c886828701611ff0565b92505060406120d986828701612005565b9150509250925092565b600080604083850312156120f657600080fd5b600061210485828601611ff0565b925050602061211585828601612005565b9150509250929050565b60006020828403121561213157600080fd5b600061213f84828501612005565b91505092915050565b60006020828403121561215a57600080fd5b60006121688482850161201a565b91505092915050565b61217a81612adb565b82525050565b61218981612aed565b82525050565b61219881612b30565b82525050565b6121a781612b54565b82525050565b60006121b8826129aa565b6121c281856129b5565b93506121d2818560208601612b78565b6121db81612c6a565b840191505092915050565b60006121f36023836129b5565b91507f45524332303a207472616e7366657220746f20746865207a65726f206164647260008301527f65737300000000000000000000000000000000000000000000000000000000006020830152604082019050919050565b60006122596022836129b5565b91507f45524332303a206275726e20616d6f756e7420657863656564732062616c616e60008301527f63650000000000000000000000000000000000000000000000000000000000006020830152604082019050919050565b60006122bf6026836129b5565b91507f4f776e61626c653a206e6577206f776e657220697320746865207a65726f206160008301527f64647265737300000000000000000000000000000000000000000000000000006020830152604082019050919050565b60006123256022836129b5565b91507f45524332303a20617070726f766520746f20746865207a65726f20616464726560008301527f73730000000000000000000000000000000000000000000000000000000000006020830152604082019050919050565b600061238b6026836129b5565b91507f45524332303a207472616e7366657220616d6f756e742065786365656473206260008301527f616c616e636500000000000000000000000000000000000000000000000000006020830152604082019050919050565b60006123f1601f836129b5565b91507f436c61696d696e672072657761726420686173206265656e20706175736564006000830152602082019050919050565b60006124316028836129b5565b91507f45524332303a207472616e7366657220616d6f756e742065786365656473206160008301527f6c6c6f77616e63650000000000000000000000000000000000000000000000006020830152604082019050919050565b60006124976020836129b5565b91507f4f776e61626c653a2063616c6c6572206973206e6f7420746865206f776e65726000830152602082019050919050565b60006124d76024836129b5565b91507f45524332303a206275726e20616d6f756e74206578636565647320616c6c6f7760008301527f616e6365000000000000000000000000000000000000000000000000000000006020830152604082019050919050565b600061253d6021836129b5565b91507f45524332303a206275726e2066726f6d20746865207a65726f2061646472657360008301527f73000000000000000000000000000000000000000000000000000000000000006020830152604082019050919050565b60006125a36025836129b5565b91507f45524332303a207472616e736665722066726f6d20746865207a65726f20616460008301527f64726573730000000000000000000000000000000000000000000000000000006020830152604082019050919050565b60006126096024836129b5565b91507f45524332303a20617070726f76652066726f6d20746865207a65726f2061646460008301527f72657373000000000000000000000000000000000000000000000000000000006020830152604082019050919050565b600061266f6025836129b5565b91507f45524332303a2064656372656173656420616c6c6f77616e63652062656c6f7760008301527f207a65726f0000000000000000000000000000000000000000000000000000006020830152604082019050919050565b60006126d5601f836129b5565b91507f45524332303a206d696e7420746f20746865207a65726f2061646472657373006000830152602082019050919050565b61271181612b19565b82525050565b61272081612b23565b82525050565b600060208201905061273b6000830184612171565b92915050565b60006020820190506127566000830184612180565b92915050565b6000602082019050612771600083018461218f565b92915050565b600060208201905061278c600083018461219e565b92915050565b600060208201905081810360008301526127ac81846121ad565b905092915050565b600060208201905081810360008301526127cd816121e6565b9050919050565b600060208201905081810360008301526127ed8161224c565b9050919050565b6000602082019050818103600083015261280d816122b2565b9050919050565b6000602082019050818103600083015261282d81612318565b9050919050565b6000602082019050818103600083015261284d8161237e565b9050919050565b6000602082019050818103600083015261286d816123e4565b9050919050565b6000602082019050818103600083015261288d81612424565b9050919050565b600060208201905081810360008301526128ad8161248a565b9050919050565b600060208201905081810360008301526128cd816124ca565b9050919050565b600060208201905081810360008301526128ed81612530565b9050919050565b6000602082019050818103600083015261290d81612596565b9050919050565b6000602082019050818103600083015261292d816125fc565b9050919050565b6000602082019050818103600083015261294d81612662565b9050919050565b6000602082019050818103600083015261296d816126c8565b9050919050565b60006020820190506129896000830184612708565b92915050565b60006020820190506129a46000830184612717565b92915050565b600081519050919050565b600082825260208201905092915050565b60006129d182612b19565b91506129dc83612b19565b9250827fffffffffffffffffffffffffffffffffffffffffffffffffffffffffffffffff03821115612a1157612a10612bdd565b5b828201905092915050565b6000612a2782612b19565b9150612a3283612b19565b925082612a4257612a41612c0c565b5b828204905092915050565b6000612a5882612b19565b9150612a6383612b19565b9250817fffffffffffffffffffffffffffffffffffffffffffffffffffffffffffffffff0483118215151615612a9c57612a9b612bdd565b5b828202905092915050565b6000612ab282612b19565b9150612abd83612b19565b925082821015612ad057612acf612bdd565b5b828203905092915050565b6000612ae682612af9565b9050919050565b60008115159050919050565b600073ffffffffffffffffffffffffffffffffffffffff82169050919050565b6000819050919050565b600060ff82169050919050565b6000612b3b82612b42565b9050919050565b6000612b4d82612af9565b9050919050565b6000612b5f82612b66565b9050919050565b6000612b7182612af9565b9050919050565b60005b83811015612b96578082015181840152602081019050612b7b565b83811115612ba5576000848401525b50505050565b60006002820490506001821680612bc357607f821691505b60208210811415612bd757612bd6612c3b565b5b50919050565b7f4e487b7100000000000000000000000000000000000000000000000000000000600052601160045260246000fd5b7f4e487b7100000000000000000000000000000000000000000000000000000000600052601260045260246000fd5b7f4e487b7100000000000000000000000000000000000000000000000000000000600052602260045260246000fd5b6000601f19601f8301169050919050565b612c8481612adb565b8114612c8f57600080fd5b50565b612c9b81612b19565b8114612ca657600080fd5b5056fea2646970667358221220c521513c9256302ea4c3f8e3953a2d71e8dfa8288dad52e37d80a327c3ebea8364736f6c63430008000033",
  "linkReferences": {},
  "deployedLinkReferences": {}
}