{
  "_format": "hh-sol-artifact-1",
  "contractName": "LemonUtility",
  "sourceName": "contracts/LemonUtility.sol",
  "abi": [
    {
      "anonymous": false,
      "inputs": [
        {
          "indexed": false,
          "internalType": "uint256",
          "name": "LemmyId",
          "type": "uint256"
        },
        {
          "indexed": false,
          "internalType": "string",
          "name": "lemmyBio",
          "type": "string"
        }
      ],
      "name": "ChangeTheBioOfLemmy",
      "type": "event"
    },
    {
      "anonymous": false,
      "inputs": [
        {
          "indexed": false,
          "internalType": "uint256",
          "name": "LemmyId",
          "type": "uint256"
        },
        {
          "indexed": false,
          "internalType": "string",
          "name": "lemmyName",
          "type": "string"
        }
      ],
      "name": "LemononizeYourName",
      "type": "event"
    },
    {
      "anonymous": false,
      "inputs": [
        {
          "indexed": true,
          "internalType": "address",
          "name": "previousOwner",
          "type": "address"
        },
        {
          "indexed": true,
          "internalType": "address",
          "name": "newOwner",
          "type": "address"
        }
      ],
      "name": "OwnershipTransferred",
      "type": "event"
    },
    {
      "inputs": [],
      "name": "BIO_CHANGE_PRICE",
      "outputs": [
        {
          "internalType": "uint256",
          "name": "",
          "type": "uint256"
        }
      ],
      "stateMutability": "view",
      "type": "function"
    },
    {
      "inputs": [],
      "name": "Juice",
      "outputs": [
        {
          "internalType": "contract IJuice2",
          "name": "",
          "type": "address"
        }
      ],
      "stateMutability": "view",
      "type": "function"
    },
    {
      "inputs": [],
      "name": "LemonToken",
      "outputs": [
        {
          "internalType": "contract ILemonToken",
          "name": "",
          "type": "address"
        }
      ],
      "stateMutability": "view",
      "type": "function"
    },
    {
      "inputs": [],
      "name": "NAME_CHANGE_PRICE",
      "outputs": [
        {
          "internalType": "uint256",
          "name": "",
          "type": "uint256"
        }
      ],
      "stateMutability": "view",
      "type": "function"
    },
    {
      "inputs": [
        {
          "internalType": "uint256",
          "name": "LemmyId",
          "type": "uint256"
        },
        {
          "internalType": "string",
          "name": "newBio",
          "type": "string"
        }
      ],
      "name": "changeBio",
      "outputs": [],
      "stateMutability": "nonpayable",
      "type": "function"
    },
    {
      "inputs": [
        {
          "internalType": "uint256",
          "name": "LemmyId",
          "type": "uint256"
        },
        {
          "internalType": "string",
          "name": "newName",
          "type": "string"
        }
      ],
      "name": "changeName",
      "outputs": [],
      "stateMutability": "nonpayable",
      "type": "function"
    },
    {
      "inputs": [
        {
          "internalType": "uint256",
          "name": "",
          "type": "uint256"
        }
      ],
      "name": "lemmyData",
      "outputs": [
        {
          "internalType": "string",
          "name": "name",
          "type": "string"
        },
        {
          "internalType": "string",
          "name": "bio",
          "type": "string"
        }
      ],
      "stateMutability": "view",
      "type": "function"
    },
    {
      "inputs": [],
      "name": "owner",
      "outputs": [
        {
          "internalType": "address",
          "name": "",
          "type": "address"
        }
      ],
      "stateMutability": "view",
      "type": "function"
    },
    {
      "inputs": [],
      "name": "renounceOwnership",
      "outputs": [],
      "stateMutability": "nonpayable",
      "type": "function"
    },
    {
      "inputs": [
        {
          "internalType": "address",
          "name": "juiceAddress",
          "type": "address"
        }
      ],
      "name": "setLemonJuiceMachine",
      "outputs": [],
      "stateMutability": "nonpayable",
      "type": "function"
    },
    {
      "inputs": [
        {
          "internalType": "address",
          "name": "lemonTokenAddress",
          "type": "address"
        }
      ],
      "name": "setLemonTokenAddress",
      "outputs": [],
      "stateMutability": "nonpayable",
      "type": "function"
    },
    {
      "inputs": [
        {
          "internalType": "address",
          "name": "newOwner",
          "type": "address"
        }
      ],
      "name": "transferOwnership",
      "outputs": [],
      "stateMutability": "nonpayable",
      "type": "function"
    }
  ],
  "bytecode": "0x608060405234801561001057600080fd5b5061002d61002261003260201b60201c565b61003a60201b60201c565b6100fe565b600033905090565b60008060009054906101000a900473ffffffffffffffffffffffffffffffffffffffff169050816000806101000a81548173ffffffffffffffffffffffffffffffffffffffff021916908373ffffffffffffffffffffffffffffffffffffffff1602179055508173ffffffffffffffffffffffffffffffffffffffff168173ffffffffffffffffffffffffffffffffffffffff167f8be0079c531659141344cd1fd0a4f28419497f9722a3daafe3b4186f6b6457e060405160405180910390a35050565b6114aa8061010d6000396000f3fe608060405234801561001057600080fd5b50600436106100b45760003560e01c806388548ef91161007157806388548ef9146101685780638da5cb5b146101845780639aab86b4146101a2578063b621d9d2146101c0578063c39cbef1146101de578063f2fde38b146101fa576100b4565b80631742abd8146100b95780634d426528146100ea5780634fc573be1461010657806354b6f16114610122578063715018a61461014057806374151be01461014a575b600080fd5b6100d360048036038101906100ce9190610da4565b610216565b6040516100e1929190611114565b60405180910390f35b61010460048036038101906100ff9190610dcd565b61034a565b005b610120600480360381019061011b9190610d52565b6104d5565b005b61012a610595565b60405161013791906111cb565b60405180910390f35b6101486105a2565b005b61015261062a565b60405161015f91906111cb565b60405180910390f35b610182600480360381019061017d9190610d52565b610637565b005b61018c6106f7565b604051610199919061109a565b60405180910390f35b6101aa610720565b6040516101b791906110de565b60405180910390f35b6101c8610746565b6040516101d591906110f9565b60405180910390f35b6101f860048036038101906101f39190610dcd565b61076c565b005b610214600480360381019061020f9190610d52565b610a44565b005b60036020528060005260406000206000915090508060000180546102399061138e565b80601f01602080910402602001604051908101604052809291908181526020018280546102659061138e565b80156102b25780601f10610287576101008083540402835291602001916102b2565b820191906000526020600020905b81548152906001019060200180831161029557829003601f168201915b5050505050908060010180546102c79061138e565b80601f01602080910402602001604051908101604052809291908181526020018280546102f39061138e565b80156103405780601f1061031557610100808354040283529160200191610340565b820191906000526020600020905b81548152906001019060200180831161032357829003601f168201915b5050505050905082565b600260009054906101000a900473ffffffffffffffffffffffffffffffffffffffff1673ffffffffffffffffffffffffffffffffffffffff16636eefbc36836040518263ffffffff1660e01b81526004016103a591906111cb565b60006040518083038186803b1580156103bd57600080fd5b505afa1580156103d1573d6000803e3d6000fd5b50505050600160009054906101000a900473ffffffffffffffffffffffffffffffffffffffff1673ffffffffffffffffffffffffffffffffffffffff16639dc29fac33680821ab0d44149800006040518363ffffffff1660e01b815260040161043b9291906110b5565b600060405180830381600087803b15801561045557600080fd5b505af1158015610469573d6000803e3d6000fd5b5050505080600360008481526020019081526020016000206001019080519060200190610497929190610c08565b507fa8dbf783cc830c89455e88198811f5d9d9914b95dc3474894f47a147c509eef282826040516104c99291906111e6565b60405180910390a15050565b6104dd610b3c565b73ffffffffffffffffffffffffffffffffffffffff166104fb6106f7565b73ffffffffffffffffffffffffffffffffffffffff1614610551576040517f08c379a00000000000000000000000000000000000000000000000000000000081526004016105489061116b565b60405180910390fd5b80600160006101000a81548173ffffffffffffffffffffffffffffffffffffffff021916908373ffffffffffffffffffffffffffffffffffffffff16021790555050565b680821ab0d441498000081565b6105aa610b3c565b73ffffffffffffffffffffffffffffffffffffffff166105c86106f7565b73ffffffffffffffffffffffffffffffffffffffff161461061e576040517f08c379a00000000000000000000000000000000000000000000000000000000081526004016106159061116b565b60405180910390fd5b6106286000610b44565b565b680821ab0d441498000081565b61063f610b3c565b73ffffffffffffffffffffffffffffffffffffffff1661065d6106f7565b73ffffffffffffffffffffffffffffffffffffffff16146106b3576040517f08c379a00000000000000000000000000000000000000000000000000000000081526004016106aa9061116b565b60405180910390fd5b80600260006101000a81548173ffffffffffffffffffffffffffffffffffffffff021916908373ffffffffffffffffffffffffffffffffffffffff16021790555050565b60008060009054906101000a900473ffffffffffffffffffffffffffffffffffffffff16905090565b600160009054906101000a900473ffffffffffffffffffffffffffffffffffffffff1681565b600260009054906101000a900473ffffffffffffffffffffffffffffffffffffffff1681565b600260009054906101000a900473ffffffffffffffffffffffffffffffffffffffff1673ffffffffffffffffffffffffffffffffffffffff16636eefbc36836040518263ffffffff1660e01b81526004016107c791906111cb565b60006040518083038186803b1580156107df57600080fd5b505afa1580156107f3573d6000803e3d6000fd5b5050505060008190506000815111801561080e575060198151105b61084d576040517f08c379a00000000000000000000000000000000000000000000000000000000081526004016108449061118b565b60405180910390fd5b6002600360008581526020019081526020016000206000016040516108729190611083565b602060405180830381855afa15801561088f573d6000803e3d6000fd5b5050506040513d601f19601f820116820180604052508101906108b29190610d7b565b6002826040516108c2919061106c565b602060405180830381855afa1580156108df573d6000803e3d6000fd5b5050506040513d601f19601f820116820180604052508101906109029190610d7b565b1415610943576040517f08c379a000000000000000000000000000000000000000000000000000000000815260040161093a906111ab565b60405180910390fd5b600160009054906101000a900473ffffffffffffffffffffffffffffffffffffffff1673ffffffffffffffffffffffffffffffffffffffff16639dc29fac33680821ab0d44149800006040518363ffffffff1660e01b81526004016109a99291906110b5565b600060405180830381600087803b1580156109c357600080fd5b505af11580156109d7573d6000803e3d6000fd5b5050505081600360008581526020019081526020016000206000019080519060200190610a05929190610c08565b507fc86ab66cbae1bf7ee117d305bc9463c0cd17f61531b29c6144004f71a1435b4a8383604051610a379291906111e6565b60405180910390a1505050565b610a4c610b3c565b73ffffffffffffffffffffffffffffffffffffffff16610a6a6106f7565b73ffffffffffffffffffffffffffffffffffffffff1614610ac0576040517f08c379a0000000000000000000000000000000000000000000000000000000008152600401610ab79061116b565b60405180910390fd5b600073ffffffffffffffffffffffffffffffffffffffff168173ffffffffffffffffffffffffffffffffffffffff161415610b30576040517f08c379a0000000000000000000000000000000000000000000000000000000008152600401610b279061114b565b60405180910390fd5b610b3981610b44565b50565b600033905090565b60008060009054906101000a900473ffffffffffffffffffffffffffffffffffffffff169050816000806101000a81548173ffffffffffffffffffffffffffffffffffffffff021916908373ffffffffffffffffffffffffffffffffffffffff1602179055508173ffffffffffffffffffffffffffffffffffffffff168173ffffffffffffffffffffffffffffffffffffffff167f8be0079c531659141344cd1fd0a4f28419497f9722a3daafe3b4186f6b6457e060405160405180910390a35050565b828054610c149061138e565b90600052602060002090601f016020900481019282610c365760008555610c7d565b82601f10610c4f57805160ff1916838001178555610c7d565b82800160010185558215610c7d579182015b82811115610c7c578251825591602001919060010190610c61565b5b509050610c8a9190610c8e565b5090565b5b80821115610ca7576000816000905550600101610c8f565b5090565b6000610cbe610cb984611247565b611216565b905082815260208101848484011115610cd657600080fd5b610ce184828561134c565b509392505050565b600081359050610cf88161142f565b92915050565b600081519050610d0d81611446565b92915050565b600082601f830112610d2457600080fd5b8135610d34848260208601610cab565b91505092915050565b600081359050610d4c8161145d565b92915050565b600060208284031215610d6457600080fd5b6000610d7284828501610ce9565b91505092915050565b600060208284031215610d8d57600080fd5b6000610d9b84828501610cfe565b91505092915050565b600060208284031215610db657600080fd5b6000610dc484828501610d3d565b91505092915050565b60008060408385031215610de057600080fd5b6000610dee85828601610d3d565b925050602083013567ffffffffffffffff811115610e0b57600080fd5b610e1785828601610d13565b9150509250929050565b610e2a816112be565b82525050565b6000610e3b8261128c565b610e4581856112a2565b9350610e5581856020860161135b565b80840191505092915050565b60008154610e6e8161138e565b610e7881866112a2565b94506001821660008114610e935760018114610ea457610ed7565b60ff19831686528186019350610ed7565b610ead85611277565b60005b83811015610ecf57815481890152600182019150602081019050610eb0565b838801955050505b50505092915050565b610ee981611304565b82525050565b610ef881611328565b82525050565b6000610f0982611297565b610f1381856112ad565b9350610f2381856020860161135b565b610f2c8161141e565b840191505092915050565b6000610f446026836112ad565b91507f4f776e61626c653a206e6577206f776e657220697320746865207a65726f206160008301527f64647265737300000000000000000000000000000000000000000000000000006020830152604082019050919050565b6000610faa6020836112ad565b91507f4f776e61626c653a2063616c6c6572206973206e6f7420746865206f776e65726000830152602082019050919050565b6000610fea6013836112ad565b91507f496e76616c6964206e616d65206c656e677468000000000000000000000000006000830152602082019050919050565b600061102a6020836112ad565b91507f4e6577206e616d652069732073616d652061732063757272656e74206e616d656000830152602082019050919050565b611066816112fa565b82525050565b60006110788284610e30565b915081905092915050565b600061108f8284610e61565b915081905092915050565b60006020820190506110af6000830184610e21565b92915050565b60006040820190506110ca6000830185610e21565b6110d7602083018461105d565b9392505050565b60006020820190506110f36000830184610ee0565b92915050565b600060208201905061110e6000830184610eef565b92915050565b6000604082019050818103600083015261112e8185610efe565b905081810360208301526111428184610efe565b90509392505050565b6000602082019050818103600083015261116481610f37565b9050919050565b6000602082019050818103600083015261118481610f9d565b9050919050565b600060208201905081810360008301526111a481610fdd565b9050919050565b600060208201905081810360008301526111c48161101d565b9050919050565b60006020820190506111e0600083018461105d565b92915050565b60006040820190506111fb600083018561105d565b818103602083015261120d8184610efe565b90509392505050565b6000604051905081810181811067ffffffffffffffff8211171561123d5761123c6113ef565b5b8060405250919050565b600067ffffffffffffffff821115611262576112616113ef565b5b601f19601f8301169050602081019050919050565b60008190508160005260206000209050919050565b600081519050919050565b600081519050919050565b600081905092915050565b600082825260208201905092915050565b60006112c9826112da565b9050919050565b6000819050919050565b600073ffffffffffffffffffffffffffffffffffffffff82169050919050565b6000819050919050565b600061130f82611316565b9050919050565b6000611321826112da565b9050919050565b60006113338261133a565b9050919050565b6000611345826112da565b9050919050565b82818337600083830152505050565b60005b8381101561137957808201518184015260208101905061135e565b83811115611388576000848401525b50505050565b600060028204905060018216806113a657607f821691505b602082108114156113ba576113b96113c0565b5b50919050565b7f4e487b7100000000000000000000000000000000000000000000000000000000600052602260045260246000fd5b7f4e487b7100000000000000000000000000000000000000000000000000000000600052604160045260246000fd5b6000601f19601f8301169050919050565b611438816112be565b811461144357600080fd5b50565b61144f816112d0565b811461145a57600080fd5b50565b611466816112fa565b811461147157600080fd5b5056fea2646970667358221220771f6181847878029896610660d97776e749c50377658cf874fd08816866a22364736f6c63430008000033",
  "linkReferences": {},
  "deployedLinkReferences": {}
}