{
  "_format": "hh-sol-artifact-1",
  "contractName": "Two",
  "sourceName": "contracts/Two.sol",
  "abi": [
    {
      "inputs": [
        {
          "internalType": "string",
          "name": "_initBaseURI",
          "type": "string"
        }
      ],
      "stateMutability": "nonpayable",
      "type": "constructor"
    },
    {
      "anonymous": false,
      "inputs": [
        {
          "indexed": true,
          "internalType": "address",
          "name": "owner",
          "type": "address"
        },
        {
          "indexed": true,
          "internalType": "address",
          "name": "approved",
          "type": "address"
        },
        {
          "indexed": true,
          "internalType": "uint256",
          "name": "tokenId",
          "type": "uint256"
        }
      ],
      "name": "Approval",
      "type": "event"
    },
    {
      "anonymous": false,
      "inputs": [
        {
          "indexed": true,
          "internalType": "address",
          "name": "owner",
          "type": "address"
        },
        {
          "indexed": true,
          "internalType": "address",
          "name": "operator",
          "type": "address"
        },
        {
          "indexed": false,
          "internalType": "bool",
          "name": "approved",
          "type": "bool"
        }
      ],
      "name": "ApprovalForAll",
      "type": "event"
    },
    {
      "anonymous": false,
      "inputs": [
        {
          "indexed": true,
          "internalType": "address",
          "name": "previousOwner",
          "type": "address"
        },
        {
          "indexed": true,
          "internalType": "address",
          "name": "newOwner",
          "type": "address"
        }
      ],
      "name": "OwnershipTransferred",
      "type": "event"
    },
    {
      "anonymous": false,
      "inputs": [
        {
          "indexed": true,
          "internalType": "address",
          "name": "from",
          "type": "address"
        },
        {
          "indexed": true,
          "internalType": "address",
          "name": "to",
          "type": "address"
        },
        {
          "indexed": true,
          "internalType": "uint256",
          "name": "tokenId",
          "type": "uint256"
        }
      ],
      "name": "Transfer",
      "type": "event"
    },
    {
      "inputs": [],
      "name": "Juice",
      "outputs": [
        {
          "internalType": "contract iJuicee",
          "name": "",
          "type": "address"
        }
      ],
      "stateMutability": "view",
      "type": "function"
    },
    {
      "inputs": [
        {
          "internalType": "address",
          "name": "to",
          "type": "address"
        },
        {
          "internalType": "uint256",
          "name": "tokenId",
          "type": "uint256"
        }
      ],
      "name": "approve",
      "outputs": [],
      "stateMutability": "nonpayable",
      "type": "function"
    },
    {
      "inputs": [
        {
          "internalType": "address",
          "name": "owner",
          "type": "address"
        }
      ],
      "name": "balanceOf",
      "outputs": [
        {
          "internalType": "uint256",
          "name": "",
          "type": "uint256"
        }
      ],
      "stateMutability": "view",
      "type": "function"
    },
    {
      "inputs": [
        {
          "internalType": "address",
          "name": "",
          "type": "address"
        }
      ],
      "name": "balanceOfTheChosenOne",
      "outputs": [
        {
          "internalType": "uint256",
          "name": "",
          "type": "uint256"
        }
      ],
      "stateMutability": "view",
      "type": "function"
    },
    {
      "inputs": [],
      "name": "baseExtension",
      "outputs": [
        {
          "internalType": "string",
          "name": "",
          "type": "string"
        }
      ],
      "stateMutability": "view",
      "type": "function"
    },
    {
      "inputs": [],
      "name": "baseURI",
      "outputs": [
        {
          "internalType": "string",
          "name": "",
          "type": "string"
        }
      ],
      "stateMutability": "view",
      "type": "function"
    },
    {
      "inputs": [
        {
          "internalType": "uint256",
          "name": "_tokenId",
          "type": "uint256"
        }
      ],
      "name": "burnYourFriend",
      "outputs": [
        {
          "internalType": "string",
          "name": "",
          "type": "string"
        }
      ],
      "stateMutability": "nonpayable",
      "type": "function"
    },
    {
      "inputs": [],
      "name": "cost",
      "outputs": [
        {
          "internalType": "uint256",
          "name": "",
          "type": "uint256"
        }
      ],
      "stateMutability": "view",
      "type": "function"
    },
    {
      "inputs": [
        {
          "internalType": "uint256",
          "name": "tokenId",
          "type": "uint256"
        }
      ],
      "name": "getApproved",
      "outputs": [
        {
          "internalType": "address",
          "name": "",
          "type": "address"
        }
      ],
      "stateMutability": "view",
      "type": "function"
    },
    {
      "inputs": [
        {
          "internalType": "uint256",
          "name": "_mintAmount",
          "type": "uint256"
        }
      ],
      "name": "getYourOGLemmys",
      "outputs": [],
      "stateMutability": "payable",
      "type": "function"
    },
    {
      "inputs": [
        {
          "internalType": "address",
          "name": "owner",
          "type": "address"
        },
        {
          "internalType": "address",
          "name": "operator",
          "type": "address"
        }
      ],
      "name": "isApprovedForAll",
      "outputs": [
        {
          "internalType": "bool",
          "name": "",
          "type": "bool"
        }
      ],
      "stateMutability": "view",
      "type": "function"
    },
    {
      "inputs": [],
      "name": "maxMintAmount",
      "outputs": [
        {
          "internalType": "uint256",
          "name": "",
          "type": "uint256"
        }
      ],
      "stateMutability": "view",
      "type": "function"
    },
    {
      "inputs": [],
      "name": "maxSupply",
      "outputs": [
        {
          "internalType": "uint256",
          "name": "",
          "type": "uint256"
        }
      ],
      "stateMutability": "view",
      "type": "function"
    },
    {
      "inputs": [],
      "name": "name",
      "outputs": [
        {
          "internalType": "string",
          "name": "",
          "type": "string"
        }
      ],
      "stateMutability": "view",
      "type": "function"
    },
    {
      "inputs": [],
      "name": "nftPerAddressLimit",
      "outputs": [
        {
          "internalType": "uint256",
          "name": "",
          "type": "uint256"
        }
      ],
      "stateMutability": "view",
      "type": "function"
    },
    {
      "inputs": [],
      "name": "owner",
      "outputs": [
        {
          "internalType": "address",
          "name": "",
          "type": "address"
        }
      ],
      "stateMutability": "view",
      "type": "function"
    },
    {
      "inputs": [
        {
          "internalType": "uint256",
          "name": "tokenId",
          "type": "uint256"
        }
      ],
      "name": "ownerOf",
      "outputs": [
        {
          "internalType": "address",
          "name": "",
          "type": "address"
        }
      ],
      "stateMutability": "view",
      "type": "function"
    },
    {
      "inputs": [
        {
          "internalType": "bool",
          "name": "_state",
          "type": "bool"
        }
      ],
      "name": "pause",
      "outputs": [],
      "stateMutability": "nonpayable",
      "type": "function"
    },
    {
      "inputs": [],
      "name": "paused",
      "outputs": [
        {
          "internalType": "bool",
          "name": "",
          "type": "bool"
        }
      ],
      "stateMutability": "view",
      "type": "function"
    },
    {
      "inputs": [],
      "name": "renounceOwnership",
      "outputs": [],
      "stateMutability": "nonpayable",
      "type": "function"
    },
    {
      "inputs": [
        {
          "internalType": "address",
          "name": "from",
          "type": "address"
        },
        {
          "internalType": "address",
          "name": "to",
          "type": "address"
        },
        {
          "internalType": "uint256",
          "name": "tokenId",
          "type": "uint256"
        }
      ],
      "name": "safeTransferFrom",
      "outputs": [],
      "stateMutability": "nonpayable",
      "type": "function"
    },
    {
      "inputs": [
        {
          "internalType": "address",
          "name": "from",
          "type": "address"
        },
        {
          "internalType": "address",
          "name": "to",
          "type": "address"
        },
        {
          "internalType": "uint256",
          "name": "tokenId",
          "type": "uint256"
        },
        {
          "internalType": "bytes",
          "name": "data",
          "type": "bytes"
        }
      ],
      "name": "safeTransferFrom",
      "outputs": [],
      "stateMutability": "nonpayable",
      "type": "function"
    },
    {
      "inputs": [
        {
          "internalType": "address",
          "name": "operator",
          "type": "address"
        },
        {
          "internalType": "bool",
          "name": "approved",
          "type": "bool"
        }
      ],
      "name": "setApprovalForAll",
      "outputs": [],
      "stateMutability": "nonpayable",
      "type": "function"
    },
    {
      "inputs": [
        {
          "internalType": "string",
          "name": "_newBaseExtension",
          "type": "string"
        }
      ],
      "name": "setBaseExtension",
      "outputs": [],
      "stateMutability": "nonpayable",
      "type": "function"
    },
    {
      "inputs": [
        {
          "internalType": "string",
          "name": "_newBaseURI",
          "type": "string"
        }
      ],
      "name": "setBaseURI",
      "outputs": [],
      "stateMutability": "nonpayable",
      "type": "function"
    },
    {
      "inputs": [
        {
          "internalType": "uint256",
          "name": "_newCost",
          "type": "uint256"
        }
      ],
      "name": "setCost",
      "outputs": [],
      "stateMutability": "nonpayable",
      "type": "function"
    },
    {
      "inputs": [
        {
          "internalType": "address",
          "name": "_juiceAddress",
          "type": "address"
        }
      ],
      "name": "setLemonJuiceMachine",
      "outputs": [],
      "stateMutability": "nonpayable",
      "type": "function"
    },
    {
      "inputs": [
        {
          "internalType": "uint256",
          "name": "_limit",
          "type": "uint256"
        }
      ],
      "name": "setNftPerAddressLimit",
      "outputs": [],
      "stateMutability": "nonpayable",
      "type": "function"
    },
    {
      "inputs": [
        {
          "internalType": "uint256",
          "name": "_newmaxMintAmount",
          "type": "uint256"
        }
      ],
      "name": "setmaxMintAmount",
      "outputs": [],
      "stateMutability": "nonpayable",
      "type": "function"
    },
    {
      "inputs": [
        {
          "internalType": "bytes4",
          "name": "interfaceId",
          "type": "bytes4"
        }
      ],
      "name": "supportsInterface",
      "outputs": [
        {
          "internalType": "bool",
          "name": "",
          "type": "bool"
        }
      ],
      "stateMutability": "view",
      "type": "function"
    },
    {
      "inputs": [],
      "name": "symbol",
      "outputs": [
        {
          "internalType": "string",
          "name": "",
          "type": "string"
        }
      ],
      "stateMutability": "view",
      "type": "function"
    },
    {
      "inputs": [
        {
          "internalType": "uint256",
          "name": "index",
          "type": "uint256"
        }
      ],
      "name": "tokenByIndex",
      "outputs": [
        {
          "internalType": "uint256",
          "name": "",
          "type": "uint256"
        }
      ],
      "stateMutability": "view",
      "type": "function"
    },
    {
      "inputs": [
        {
          "internalType": "address",
          "name": "owner",
          "type": "address"
        },
        {
          "internalType": "uint256",
          "name": "index",
          "type": "uint256"
        }
      ],
      "name": "tokenOfOwnerByIndex",
      "outputs": [
        {
          "internalType": "uint256",
          "name": "",
          "type": "uint256"
        }
      ],
      "stateMutability": "view",
      "type": "function"
    },
    {
      "inputs": [
        {
          "internalType": "uint256",
          "name": "tokenId",
          "type": "uint256"
        }
      ],
      "name": "tokenURI",
      "outputs": [
        {
          "internalType": "string",
          "name": "",
          "type": "string"
        }
      ],
      "stateMutability": "view",
      "type": "function"
    },
    {
      "inputs": [],
      "name": "totalSupply",
      "outputs": [
        {
          "internalType": "uint256",
          "name": "",
          "type": "uint256"
        }
      ],
      "stateMutability": "view",
      "type": "function"
    },
    {
      "inputs": [
        {
          "internalType": "address",
          "name": "from",
          "type": "address"
        },
        {
          "internalType": "address",
          "name": "to",
          "type": "address"
        },
        {
          "internalType": "uint256",
          "name": "tokenId",
          "type": "uint256"
        }
      ],
      "name": "transferFrom",
      "outputs": [],
      "stateMutability": "nonpayable",
      "type": "function"
    },
    {
      "inputs": [
        {
          "internalType": "address",
          "name": "newOwner",
          "type": "address"
        }
      ],
      "name": "transferOwnership",
      "outputs": [],
      "stateMutability": "nonpayable",
      "type": "function"
    },
    {
      "inputs": [
        {
          "internalType": "address",
          "name": "_owner",
          "type": "address"
        }
      ],
      "name": "walletOfOwner",
      "outputs": [
        {
          "internalType": "uint256[]",
          "name": "",
          "type": "uint256[]"
        }
      ],
      "stateMutability": "view",
      "type": "function"
    },
    {
      "inputs": [],
      "name": "withdraw",
      "outputs": [],
      "stateMutability": "payable",
      "type": "function"
    }
  ],
  "bytecode": "0x60806040526040518060400160405280600581526020017f2e6a736f6e000000000000000000000000000000000000000000000000000000815250600c90805190602001906200005192919062000249565b506000600d5560c8600e556001600f5560016010556000601160006101000a81548160ff0219169083151502179055503480156200008e57600080fd5b5060405162004e6d38038062004e6d8339818101604052810190620000b491906200036b565b6040518060400160405280600c81526020017f4c656d6f6e47656e6573697300000000000000000000000000000000000000008152506040518060400160405280600381526020017f4c4745000000000000000000000000000000000000000000000000000000000081525081600090805190602001906200013892919062000249565b5080600190805190602001906200015192919062000249565b50505062000174620001686200017b60201b60201c565b6200018360201b60201c565b50620004e1565b600033905090565b6000600a60009054906101000a900473ffffffffffffffffffffffffffffffffffffffff16905081600a60006101000a81548173ffffffffffffffffffffffffffffffffffffffff021916908373ffffffffffffffffffffffffffffffffffffffff1602179055508173ffffffffffffffffffffffffffffffffffffffff168173ffffffffffffffffffffffffffffffffffffffff167f8be0079c531659141344cd1fd0a4f28419497f9722a3daafe3b4186f6b6457e060405160405180910390a35050565b82805462000257906200044d565b90600052602060002090601f0160209004810192826200027b5760008555620002c7565b82601f106200029657805160ff1916838001178555620002c7565b82800160010185558215620002c7579182015b82811115620002c6578251825591602001919060010190620002a9565b5b509050620002d69190620002da565b5090565b5b80821115620002f5576000816000905550600101620002db565b5090565b6000620003106200030a84620003e4565b620003b0565b9050828152602081018484840111156200032957600080fd5b6200033684828562000417565b509392505050565b600082601f8301126200035057600080fd5b815162000362848260208601620002f9565b91505092915050565b6000602082840312156200037e57600080fd5b600082015167ffffffffffffffff8111156200039957600080fd5b620003a7848285016200033e565b91505092915050565b6000604051905081810181811067ffffffffffffffff82111715620003da57620003d9620004b2565b5b8060405250919050565b600067ffffffffffffffff821115620004025762000401620004b2565b5b601f19601f8301169050602081019050919050565b60005b83811015620004375780820151818401526020810190506200041a565b8381111562000447576000848401525b50505050565b600060028204905060018216806200046657607f821691505b602082108114156200047d576200047c62000483565b5b50919050565b7f4e487b7100000000000000000000000000000000000000000000000000000000600052602260045260246000fd5b7f4e487b7100000000000000000000000000000000000000000000000000000000600052604160045260246000fd5b61497c80620004f16000396000f3fe6080604052600436106102305760003560e01c80635c975abb1161012e578063a97f7a8a116100ab578063d0eb26b01161006f578063d0eb26b014610847578063d5abeb0114610870578063da3ef23f1461089b578063e985e9c5146108c4578063f2fde38b1461090157610230565b8063a97f7a8a1461076f578063b88d4fde1461078b578063ba7d2c76146107b4578063c6682862146107df578063c87b56dd1461080a57610230565b80637f00c7a6116100f25780637f00c7a61461069c5780638da5cb5b146106c557806395d89b41146106f05780639aab86b41461071b578063a22cb4651461074657610230565b80635c975abb146105b55780636352211e146105e05780636c0360eb1461061d57806370a0823114610648578063715018a61461068557610230565b8063239c70ae116101bc578063438b630011610180578063438b6300146104c057806344a0d68a146104fd5780634f6ccce7146105265780634fc573be1461056357806355f804b31461058c57610230565b8063239c70ae146103fc57806323b872dd146104275780632f745c59146104505780633ccfd60b1461048d57806342842e0e1461049757610230565b8063095ea7b311610203578063095ea7b31461030357806312f915e71461032c57806313faede61461036957806318160ddd146103945780631b958f84146103bf57610230565b806301ffc9a71461023557806302329a291461027257806306fdde031461029b578063081812fc146102c6575b600080fd5b34801561024157600080fd5b5061025c6004803603810190610257919061349d565b61092a565b604051610269919061409f565b60405180910390f35b34801561027e57600080fd5b5061029960048036038101906102949190613474565b6109a4565b005b3480156102a757600080fd5b506102b0610a3d565b6040516102bd91906140d5565b60405180910390f35b3480156102d257600080fd5b506102ed60048036038101906102e89190613530565b610acf565b6040516102fa9190614016565b60405180910390f35b34801561030f57600080fd5b5061032a60048036038101906103259190613438565b610b54565b005b34801561033857600080fd5b50610353600480360381019061034e91906132cd565b610c6c565b6040516103609190614417565b60405180910390f35b34801561037557600080fd5b5061037e610c84565b60405161038b9190614417565b60405180910390f35b3480156103a057600080fd5b506103a9610c8a565b6040516103b69190614417565b60405180910390f35b3480156103cb57600080fd5b506103e660048036038101906103e19190613530565b610c97565b6040516103f391906140d5565b60405180910390f35b34801561040857600080fd5b50610411610d3c565b60405161041e9190614417565b60405180910390f35b34801561043357600080fd5b5061044e60048036038101906104499190613332565b610d42565b005b34801561045c57600080fd5b5061047760048036038101906104729190613438565b610d52565b6040516104849190614417565b60405180910390f35b610495610df7565b005b3480156104a357600080fd5b506104be60048036038101906104b99190613332565b610eec565b005b3480156104cc57600080fd5b506104e760048036038101906104e291906132cd565b610f0c565b6040516104f4919061407d565b60405180910390f35b34801561050957600080fd5b50610524600480360381019061051f9190613530565b611006565b005b34801561053257600080fd5b5061054d60048036038101906105489190613530565b61108c565b60405161055a9190614417565b60405180910390f35b34801561056f57600080fd5b5061058a600480360381019061058591906132cd565b611123565b005b34801561059857600080fd5b506105b360048036038101906105ae91906134ef565b6111e3565b005b3480156105c157600080fd5b506105ca611279565b6040516105d7919061409f565b60405180910390f35b3480156105ec57600080fd5b5061060760048036038101906106029190613530565b61128c565b6040516106149190614016565b60405180910390f35b34801561062957600080fd5b5061063261133e565b60405161063f91906140d5565b60405180910390f35b34801561065457600080fd5b5061066f600480360381019061066a91906132cd565b6113cc565b60405161067c9190614417565b60405180910390f35b34801561069157600080fd5b5061069a611484565b005b3480156106a857600080fd5b506106c360048036038101906106be9190613530565b61150c565b005b3480156106d157600080fd5b506106da611592565b6040516106e79190614016565b60405180910390f35b3480156106fc57600080fd5b506107056115bc565b60405161071291906140d5565b60405180910390f35b34801561072757600080fd5b5061073061164e565b60405161073d91906140ba565b60405180910390f35b34801561075257600080fd5b5061076d600480360381019061076891906133fc565b611674565b005b61078960048036038101906107849190613530565b6117f5565b005b34801561079757600080fd5b506107b260048036038101906107ad9190613381565b611a9b565b005b3480156107c057600080fd5b506107c9611aad565b6040516107d69190614417565b60405180910390f35b3480156107eb57600080fd5b506107f4611ab3565b60405161080191906140d5565b60405180910390f35b34801561081657600080fd5b50610831600480360381019061082c9190613530565b611b41565b60405161083e91906140d5565b60405180910390f35b34801561085357600080fd5b5061086e60048036038101906108699190613530565b611beb565b005b34801561087c57600080fd5b50610885611c71565b6040516108929190614417565b60405180910390f35b3480156108a757600080fd5b506108c260048036038101906108bd91906134ef565b611c77565b005b3480156108d057600080fd5b506108eb60048036038101906108e691906132f6565b611d0d565b6040516108f8919061409f565b60405180910390f35b34801561090d57600080fd5b50610928600480360381019061092391906132cd565b611da1565b005b60007f780e9d63000000000000000000000000000000000000000000000000000000007bffffffffffffffffffffffffffffffffffffffffffffffffffffffff1916827bffffffffffffffffffffffffffffffffffffffffffffffffffffffff1916148061099d575061099c82611e99565b5b9050919050565b6109ac611f7b565b73ffffffffffffffffffffffffffffffffffffffff166109ca611592565b73ffffffffffffffffffffffffffffffffffffffff1614610a20576040517f08c379a0000000000000000000000000000000000000000000000000000000008152600401610a17906142f7565b60405180910390fd5b80601160006101000a81548160ff02191690831515021790555050565b606060008054610a4c9061474e565b80601f0160208091040260200160405190810160405280929190818152602001828054610a789061474e565b8015610ac55780601f10610a9a57610100808354040283529160200191610ac5565b820191906000526020600020905b815481529060010190602001808311610aa857829003601f168201915b5050505050905090565b6000610ada82611f83565b610b19576040517f08c379a0000000000000000000000000000000000000000000000000000000008152600401610b10906142d7565b60405180910390fd5b6004600083815260200190815260200160002060009054906101000a900473ffffffffffffffffffffffffffffffffffffffff169050919050565b6000610b5f8261128c565b90508073ffffffffffffffffffffffffffffffffffffffff168373ffffffffffffffffffffffffffffffffffffffff161415610bd0576040517f08c379a0000000000000000000000000000000000000000000000000000000008152600401610bc790614377565b60405180910390fd5b8073ffffffffffffffffffffffffffffffffffffffff16610bef611f7b565b73ffffffffffffffffffffffffffffffffffffffff161480610c1e5750610c1d81610c18611f7b565b611d0d565b5b610c5d576040517f08c379a0000000000000000000000000000000000000000000000000000000008152600401610c5490614217565b60405180910390fd5b610c678383611fef565b505050565b60126020528060005260406000206000915090505481565b600d5481565b6000600880549050905090565b60603373ffffffffffffffffffffffffffffffffffffffff16610cb98361128c565b73ffffffffffffffffffffffffffffffffffffffff1614610d0f576040517f08c379a0000000000000000000000000000000000000000000000000000000008152600401610d06906141d7565b60405180910390fd5b610d1c3361dead846120a8565b604051806060016040528060238152602001614924602391399050919050565b600f5481565b610d4d838383612304565b505050565b6000610d5d836113cc565b8210610d9e576040517f08c379a0000000000000000000000000000000000000000000000000000000008152600401610d95906140f7565b60405180910390fd5b600660008473ffffffffffffffffffffffffffffffffffffffff1673ffffffffffffffffffffffffffffffffffffffff168152602001908152602001600020600083815260200190815260200160002054905092915050565b610dff611f7b565b73ffffffffffffffffffffffffffffffffffffffff16610e1d611592565b73ffffffffffffffffffffffffffffffffffffffff1614610e73576040517f08c379a0000000000000000000000000000000000000000000000000000000008152600401610e6a906142f7565b60405180910390fd5b60003373ffffffffffffffffffffffffffffffffffffffff1647604051610e9990614001565b60006040518083038185875af1925050503d8060008114610ed6576040519150601f19603f3d011682016040523d82523d6000602084013e610edb565b606091505b5050905080610ee957600080fd5b50565b610f0783838360405180602001604052806000815250611a9b565b505050565b60606000610f19836113cc565b905060008167ffffffffffffffff811115610f5d577f4e487b7100000000000000000000000000000000000000000000000000000000600052604160045260246000fd5b604051908082528060200260200182016040528015610f8b5781602001602082028036833780820191505090505b50905060005b82811015610ffb57610fa38582610d52565b828281518110610fdc577f4e487b7100000000000000000000000000000000000000000000000000000000600052603260045260246000fd5b6020026020010181815250508080610ff390614780565b915050610f91565b508092505050919050565b61100e611f7b565b73ffffffffffffffffffffffffffffffffffffffff1661102c611592565b73ffffffffffffffffffffffffffffffffffffffff1614611082576040517f08c379a0000000000000000000000000000000000000000000000000000000008152600401611079906142f7565b60405180910390fd5b80600d8190555050565b6000611096610c8a565b82106110d7576040517f08c379a00000000000000000000000000000000000000000000000000000000081526004016110ce906143d7565b60405180910390fd5b60088281548110611111577f4e487b7100000000000000000000000000000000000000000000000000000000600052603260045260246000fd5b90600052602060002001549050919050565b61112b611f7b565b73ffffffffffffffffffffffffffffffffffffffff16611149611592565b73ffffffffffffffffffffffffffffffffffffffff161461119f576040517f08c379a0000000000000000000000000000000000000000000000000000000008152600401611196906142f7565b60405180910390fd5b80601360006101000a81548173ffffffffffffffffffffffffffffffffffffffff021916908373ffffffffffffffffffffffffffffffffffffffff16021790555050565b6111eb611f7b565b73ffffffffffffffffffffffffffffffffffffffff16611209611592565b73ffffffffffffffffffffffffffffffffffffffff161461125f576040517f08c379a0000000000000000000000000000000000000000000000000000000008152600401611256906142f7565b60405180910390fd5b80600b90805190602001906112759291906130f1565b5050565b601160009054906101000a900460ff1681565b6000806002600084815260200190815260200160002060009054906101000a900473ffffffffffffffffffffffffffffffffffffffff169050600073ffffffffffffffffffffffffffffffffffffffff168173ffffffffffffffffffffffffffffffffffffffff161415611335576040517f08c379a000000000000000000000000000000000000000000000000000000000815260040161132c90614257565b60405180910390fd5b80915050919050565b600b805461134b9061474e565b80601f01602080910402602001604051908101604052809291908181526020018280546113779061474e565b80156113c45780601f10611399576101008083540402835291602001916113c4565b820191906000526020600020905b8154815290600101906020018083116113a757829003601f168201915b505050505081565b60008073ffffffffffffffffffffffffffffffffffffffff168273ffffffffffffffffffffffffffffffffffffffff16141561143d576040517f08c379a000000000000000000000000000000000000000000000000000000000815260040161143490614237565b60405180910390fd5b600360008373ffffffffffffffffffffffffffffffffffffffff1673ffffffffffffffffffffffffffffffffffffffff168152602001908152602001600020549050919050565b61148c611f7b565b73ffffffffffffffffffffffffffffffffffffffff166114aa611592565b73ffffffffffffffffffffffffffffffffffffffff1614611500576040517f08c379a00000000000000000000000000000000000000000000000000000000081526004016114f7906142f7565b60405180910390fd5b61150a6000612364565b565b611514611f7b565b73ffffffffffffffffffffffffffffffffffffffff16611532611592565b73ffffffffffffffffffffffffffffffffffffffff1614611588576040517f08c379a000000000000000000000000000000000000000000000000000000000815260040161157f906142f7565b60405180910390fd5b80600f8190555050565b6000600a60009054906101000a900473ffffffffffffffffffffffffffffffffffffffff16905090565b6060600180546115cb9061474e565b80601f01602080910402602001604051908101604052809291908181526020018280546115f79061474e565b80156116445780601f1061161957610100808354040283529160200191611644565b820191906000526020600020905b81548152906001019060200180831161162757829003601f168201915b5050505050905090565b601360009054906101000a900473ffffffffffffffffffffffffffffffffffffffff1681565b61167c611f7b565b73ffffffffffffffffffffffffffffffffffffffff168273ffffffffffffffffffffffffffffffffffffffff1614156116ea576040517f08c379a00000000000000000000000000000000000000000000000000000000081526004016116e1906141b7565b60405180910390fd5b80600560006116f7611f7b565b73ffffffffffffffffffffffffffffffffffffffff1673ffffffffffffffffffffffffffffffffffffffff16815260200190815260200160002060008473ffffffffffffffffffffffffffffffffffffffff1673ffffffffffffffffffffffffffffffffffffffff16815260200190815260200160002060006101000a81548160ff0219169083151502179055508173ffffffffffffffffffffffffffffffffffffffff166117a4611f7b565b73ffffffffffffffffffffffffffffffffffffffff167f17307eab39ab6107e8899845ad3d59bd9653f200f220920489ca2b5937696c31836040516117e9919061409f565b60405180910390a35050565b601160009054906101000a900460ff1615611845576040517f08c379a000000000000000000000000000000000000000000000000000000000815260040161183c90614317565b60405180910390fd5b600061184f610c8a565b905060008211611894576040517f08c379a000000000000000000000000000000000000000000000000000000000815260040161188b906143f7565b60405180910390fd5b600f548211156118d9576040517f08c379a00000000000000000000000000000000000000000000000000000000081526004016118d090614297565b60405180910390fd5b600e5482826118e8919061455f565b1115611929576040517f08c379a000000000000000000000000000000000000000000000000000000000815260040161192090614277565b60405180910390fd5b6000601260003373ffffffffffffffffffffffffffffffffffffffff1673ffffffffffffffffffffffffffffffffffffffff16815260200190815260200160002054905082600d5461197b91906145e6565b3410156119bd576040517f08c379a00000000000000000000000000000000000000000000000000000000081526004016119b490614397565b60405180910390fd5b60105483826119cc919061455f565b1115611a0d576040517f08c379a0000000000000000000000000000000000000000000000000000000008152600401611a0490614177565b60405180910390fd5b60005b83811015611a9557601260003373ffffffffffffffffffffffffffffffffffffffff1673ffffffffffffffffffffffffffffffffffffffff1681526020019081526020016000206000815480929190611a6890614780565b9190505550611a82338285611a7d919061455f565b61242a565b8080611a8d90614780565b915050611a10565b50505050565b611aa784848484612448565b50505050565b60105481565b600c8054611ac09061474e565b80601f0160208091040260200160405190810160405280929190818152602001828054611aec9061474e565b8015611b395780601f10611b0e57610100808354040283529160200191611b39565b820191906000526020600020905b815481529060010190602001808311611b1c57829003601f168201915b505050505081565b6060611b4c82611f83565b611b8b576040517f08c379a0000000000000000000000000000000000000000000000000000000008152600401611b8290614357565b60405180910390fd5b6000611b956124aa565b90506000815111611bb55760405180602001604052806000815250611be3565b80611bbf8461253c565b600c604051602001611bd393929190613fd0565b6040516020818303038152906040525b915050919050565b611bf3611f7b565b73ffffffffffffffffffffffffffffffffffffffff16611c11611592565b73ffffffffffffffffffffffffffffffffffffffff1614611c67576040517f08c379a0000000000000000000000000000000000000000000000000000000008152600401611c5e906142f7565b60405180910390fd5b8060108190555050565b600e5481565b611c7f611f7b565b73ffffffffffffffffffffffffffffffffffffffff16611c9d611592565b73ffffffffffffffffffffffffffffffffffffffff1614611cf3576040517f08c379a0000000000000000000000000000000000000000000000000000000008152600401611cea906142f7565b60405180910390fd5b80600c9080519060200190611d099291906130f1565b5050565b6000600560008473ffffffffffffffffffffffffffffffffffffffff1673ffffffffffffffffffffffffffffffffffffffff16815260200190815260200160002060008373ffffffffffffffffffffffffffffffffffffffff1673ffffffffffffffffffffffffffffffffffffffff16815260200190815260200160002060009054906101000a900460ff16905092915050565b611da9611f7b565b73ffffffffffffffffffffffffffffffffffffffff16611dc7611592565b73ffffffffffffffffffffffffffffffffffffffff1614611e1d576040517f08c379a0000000000000000000000000000000000000000000000000000000008152600401611e14906142f7565b60405180910390fd5b600073ffffffffffffffffffffffffffffffffffffffff168173ffffffffffffffffffffffffffffffffffffffff161415611e8d576040517f08c379a0000000000000000000000000000000000000000000000000000000008152600401611e8490614137565b60405180910390fd5b611e9681612364565b50565b60007f80ac58cd000000000000000000000000000000000000000000000000000000007bffffffffffffffffffffffffffffffffffffffffffffffffffffffff1916827bffffffffffffffffffffffffffffffffffffffffffffffffffffffff19161480611f6457507f5b5e139f000000000000000000000000000000000000000000000000000000007bffffffffffffffffffffffffffffffffffffffffffffffffffffffff1916827bffffffffffffffffffffffffffffffffffffffffffffffffffffffff1916145b80611f745750611f73826126e9565b5b9050919050565b600033905090565b60008073ffffffffffffffffffffffffffffffffffffffff166002600084815260200190815260200160002060009054906101000a900473ffffffffffffffffffffffffffffffffffffffff1673ffffffffffffffffffffffffffffffffffffffff1614159050919050565b816004600083815260200190815260200160002060006101000a81548173ffffffffffffffffffffffffffffffffffffffff021916908373ffffffffffffffffffffffffffffffffffffffff160217905550808273ffffffffffffffffffffffffffffffffffffffff166120628361128c565b73ffffffffffffffffffffffffffffffffffffffff167f8c5be1e5ebec7d5bd14f71427d1e84f3dd0314c0f7b2291e5b200ac8c7c3b92560405160405180910390a45050565b8273ffffffffffffffffffffffffffffffffffffffff166120c88261128c565b73ffffffffffffffffffffffffffffffffffffffff161461211e576040517f08c379a000000000000000000000000000000000000000000000000000000000815260040161211590614337565b60405180910390fd5b600073ffffffffffffffffffffffffffffffffffffffff168273ffffffffffffffffffffffffffffffffffffffff16141561218e576040517f08c379a000000000000000000000000000000000000000000000000000000000815260040161218590614197565b60405180910390fd5b612199838383612753565b6121a4600082611fef565b6001600360008573ffffffffffffffffffffffffffffffffffffffff1673ffffffffffffffffffffffffffffffffffffffff16815260200190815260200160002060008282546121f49190614640565b925050819055506001600360008473ffffffffffffffffffffffffffffffffffffffff1673ffffffffffffffffffffffffffffffffffffffff168152602001908152602001600020600082825461224b919061455f565b92505081905550816002600083815260200190815260200160002060006101000a81548173ffffffffffffffffffffffffffffffffffffffff021916908373ffffffffffffffffffffffffffffffffffffffff160217905550808273ffffffffffffffffffffffffffffffffffffffff168473ffffffffffffffffffffffffffffffffffffffff167fddf252ad1be2c89b69c2b068fc378daa952ba7f163c4a11628f55a4df523b3ef60405160405180910390a4505050565b61231561230f611f7b565b82612867565b612354576040517f08c379a000000000000000000000000000000000000000000000000000000000815260040161234b906143b7565b60405180910390fd5b61235f8383836120a8565b505050565b6000600a60009054906101000a900473ffffffffffffffffffffffffffffffffffffffff16905081600a60006101000a81548173ffffffffffffffffffffffffffffffffffffffff021916908373ffffffffffffffffffffffffffffffffffffffff1602179055508173ffffffffffffffffffffffffffffffffffffffff168173ffffffffffffffffffffffffffffffffffffffff167f8be0079c531659141344cd1fd0a4f28419497f9722a3daafe3b4186f6b6457e060405160405180910390a35050565b612444828260405180602001604052806000815250612945565b5050565b612459612453611f7b565b83612867565b612498576040517f08c379a000000000000000000000000000000000000000000000000000000000815260040161248f906143b7565b60405180910390fd5b6124a4848484846129a0565b50505050565b6060600b80546124b99061474e565b80601f01602080910402602001604051908101604052809291908181526020018280546124e59061474e565b80156125325780601f1061250757610100808354040283529160200191612532565b820191906000526020600020905b81548152906001019060200180831161251557829003601f168201915b5050505050905090565b60606000821415612584576040518060400160405280600181526020017f300000000000000000000000000000000000000000000000000000000000000081525090506126e4565b600082905060005b600082146125b657808061259f90614780565b915050600a826125af91906145b5565b915061258c565b60008167ffffffffffffffff8111156125f8577f4e487b7100000000000000000000000000000000000000000000000000000000600052604160045260246000fd5b6040519080825280601f01601f19166020018201604052801561262a5781602001600182028036833780820191505090505b5090505b600085146126dd576001826126439190614640565b9150600a8561265291906147c9565b603061265e919061455f565b60f81b81838151811061269a577f4e487b7100000000000000000000000000000000000000000000000000000000600052603260045260246000fd5b60200101907effffffffffffffffffffffffffffffffffffffffffffffffffffffffffffff1916908160001a905350600a856126d691906145b5565b945061262e565b8093505050505b919050565b60007f01ffc9a7000000000000000000000000000000000000000000000000000000007bffffffffffffffffffffffffffffffffffffffffffffffffffffffff1916827bffffffffffffffffffffffffffffffffffffffffffffffffffffffff1916149050919050565b61275e8383836129fc565b600073ffffffffffffffffffffffffffffffffffffffff168373ffffffffffffffffffffffffffffffffffffffff1614156127a15761279c81612a01565b6127e0565b8173ffffffffffffffffffffffffffffffffffffffff168373ffffffffffffffffffffffffffffffffffffffff16146127df576127de8382612a4a565b5b5b600073ffffffffffffffffffffffffffffffffffffffff168273ffffffffffffffffffffffffffffffffffffffff1614156128235761281e81612bb7565b612862565b8273ffffffffffffffffffffffffffffffffffffffff168273ffffffffffffffffffffffffffffffffffffffff1614612861576128608282612cfa565b5b5b505050565b600061287282611f83565b6128b1576040517f08c379a00000000000000000000000000000000000000000000000000000000081526004016128a8906141f7565b60405180910390fd5b60006128bc8361128c565b90508073ffffffffffffffffffffffffffffffffffffffff168473ffffffffffffffffffffffffffffffffffffffff16148061292b57508373ffffffffffffffffffffffffffffffffffffffff1661291384610acf565b73ffffffffffffffffffffffffffffffffffffffff16145b8061293c575061293b8185611d0d565b5b91505092915050565b61294f8383612d79565b61295c6000848484612f47565b61299b576040517f08c379a000000000000000000000000000000000000000000000000000000000815260040161299290614117565b60405180910390fd5b505050565b6129ab8484846120a8565b6129b784848484612f47565b6129f6576040517f08c379a00000000000000000000000000000000000000000000000000000000081526004016129ed90614117565b60405180910390fd5b50505050565b505050565b6008805490506009600083815260200190815260200160002081905550600881908060018154018082558091505060019003906000526020600020016000909190919091505550565b60006001612a57846113cc565b612a619190614640565b9050600060076000848152602001908152602001600020549050818114612b46576000600660008673ffffffffffffffffffffffffffffffffffffffff1673ffffffffffffffffffffffffffffffffffffffff168152602001908152602001600020600084815260200190815260200160002054905080600660008773ffffffffffffffffffffffffffffffffffffffff1673ffffffffffffffffffffffffffffffffffffffff168152602001908152602001600020600084815260200190815260200160002081905550816007600083815260200190815260200160002081905550505b6007600084815260200190815260200160002060009055600660008573ffffffffffffffffffffffffffffffffffffffff1673ffffffffffffffffffffffffffffffffffffffff16815260200190815260200160002060008381526020019081526020016000206000905550505050565b60006001600880549050612bcb9190614640565b9050600060096000848152602001908152602001600020549050600060088381548110612c21577f4e487b7100000000000000000000000000000000000000000000000000000000600052603260045260246000fd5b906000526020600020015490508060088381548110612c69577f4e487b7100000000000000000000000000000000000000000000000000000000600052603260045260246000fd5b906000526020600020018190555081600960008381526020019081526020016000208190555060096000858152602001908152602001600020600090556008805480612cde577f4e487b7100000000000000000000000000000000000000000000000000000000600052603160045260246000fd5b6001900381819060005260206000200160009055905550505050565b6000612d05836113cc565b905081600660008573ffffffffffffffffffffffffffffffffffffffff1673ffffffffffffffffffffffffffffffffffffffff168152602001908152602001600020600083815260200190815260200160002081905550806007600084815260200190815260200160002081905550505050565b600073ffffffffffffffffffffffffffffffffffffffff168273ffffffffffffffffffffffffffffffffffffffff161415612de9576040517f08c379a0000000000000000000000000000000000000000000000000000000008152600401612de0906142b7565b60405180910390fd5b612df281611f83565b15612e32576040517f08c379a0000000000000000000000000000000000000000000000000000000008152600401612e2990614157565b60405180910390fd5b612e3e60008383612753565b6001600360008473ffffffffffffffffffffffffffffffffffffffff1673ffffffffffffffffffffffffffffffffffffffff1681526020019081526020016000206000828254612e8e919061455f565b92505081905550816002600083815260200190815260200160002060006101000a81548173ffffffffffffffffffffffffffffffffffffffff021916908373ffffffffffffffffffffffffffffffffffffffff160217905550808273ffffffffffffffffffffffffffffffffffffffff16600073ffffffffffffffffffffffffffffffffffffffff167fddf252ad1be2c89b69c2b068fc378daa952ba7f163c4a11628f55a4df523b3ef60405160405180910390a45050565b6000612f688473ffffffffffffffffffffffffffffffffffffffff166130de565b156130d1578373ffffffffffffffffffffffffffffffffffffffff1663150b7a02612f91611f7b565b8786866040518563ffffffff1660e01b8152600401612fb39493929190614031565b602060405180830381600087803b158015612fcd57600080fd5b505af1925050508015612ffe57506040513d601f19601f82011682018060405250810190612ffb91906134c6565b60015b613081573d806000811461302e576040519150601f19603f3d011682016040523d82523d6000602084013e613033565b606091505b50600081511415613079576040517f08c379a000000000000000000000000000000000000000000000000000000000815260040161307090614117565b60405180910390fd5b805181602001fd5b63150b7a0260e01b7bffffffffffffffffffffffffffffffffffffffffffffffffffffffff1916817bffffffffffffffffffffffffffffffffffffffffffffffffffffffff1916149150506130d6565b600190505b949350505050565b600080823b905060008111915050919050565b8280546130fd9061474e565b90600052602060002090601f01602090048101928261311f5760008555613166565b82601f1061313857805160ff1916838001178555613166565b82800160010185558215613166579182015b8281111561316557825182559160200191906001019061314a565b5b5090506131739190613177565b5090565b5b80821115613190576000816000905550600101613178565b5090565b60006131a76131a284614463565b614432565b9050828152602081018484840111156131bf57600080fd5b6131ca84828561470c565b509392505050565b60006131e56131e084614493565b614432565b9050828152602081018484840111156131fd57600080fd5b61320884828561470c565b509392505050565b60008135905061321f816148c7565b92915050565b600081359050613234816148de565b92915050565b600081359050613249816148f5565b92915050565b60008151905061325e816148f5565b92915050565b600082601f83011261327557600080fd5b8135613285848260208601613194565b91505092915050565b600082601f83011261329f57600080fd5b81356132af8482602086016131d2565b91505092915050565b6000813590506132c78161490c565b92915050565b6000602082840312156132df57600080fd5b60006132ed84828501613210565b91505092915050565b6000806040838503121561330957600080fd5b600061331785828601613210565b925050602061332885828601613210565b9150509250929050565b60008060006060848603121561334757600080fd5b600061335586828701613210565b935050602061336686828701613210565b9250506040613377868287016132b8565b9150509250925092565b6000806000806080858703121561339757600080fd5b60006133a587828801613210565b94505060206133b687828801613210565b93505060406133c7878288016132b8565b925050606085013567ffffffffffffffff8111156133e457600080fd5b6133f087828801613264565b91505092959194509250565b6000806040838503121561340f57600080fd5b600061341d85828601613210565b925050602061342e85828601613225565b9150509250929050565b6000806040838503121561344b57600080fd5b600061345985828601613210565b925050602061346a858286016132b8565b9150509250929050565b60006020828403121561348657600080fd5b600061349484828501613225565b91505092915050565b6000602082840312156134af57600080fd5b60006134bd8482850161323a565b91505092915050565b6000602082840312156134d857600080fd5b60006134e68482850161324f565b91505092915050565b60006020828403121561350157600080fd5b600082013567ffffffffffffffff81111561351b57600080fd5b6135278482850161328e565b91505092915050565b60006020828403121561354257600080fd5b6000613550848285016132b8565b91505092915050565b60006135658383613fb2565b60208301905092915050565b61357a81614674565b82525050565b600061358b826144e8565b6135958185614516565b93506135a0836144c3565b8060005b838110156135d15781516135b88882613559565b97506135c383614509565b9250506001810190506135a4565b5085935050505092915050565b6135e781614686565b82525050565b60006135f8826144f3565b6136028185614527565b935061361281856020860161471b565b61361b816148b6565b840191505092915050565b61362f816146e8565b82525050565b6000613640826144fe565b61364a8185614543565b935061365a81856020860161471b565b613663816148b6565b840191505092915050565b6000613679826144fe565b6136838185614554565b935061369381856020860161471b565b80840191505092915050565b600081546136ac8161474e565b6136b68186614554565b945060018216600081146136d157600181146136e257613715565b60ff19831686528186019350613715565b6136eb856144d3565b60005b8381101561370d578154818901526001820191506020810190506136ee565b838801955050505b50505092915050565b600061372b602b83614543565b91507f455243373231456e756d657261626c653a206f776e657220696e646578206f7560008301527f74206f6620626f756e64730000000000000000000000000000000000000000006020830152604082019050919050565b6000613791603283614543565b91507f4552433732313a207472616e7366657220746f206e6f6e20455243373231526560008301527f63656976657220696d706c656d656e74657200000000000000000000000000006020830152604082019050919050565b60006137f7602683614543565b91507f4f776e61626c653a206e6577206f776e657220697320746865207a65726f206160008301527f64647265737300000000000000000000000000000000000000000000000000006020830152604082019050919050565b600061385d601c83614543565b91507f4552433732313a20746f6b656e20616c7265616479206d696e746564000000006000830152602082019050919050565b600061389d601c83614543565b91507f6d6178204e4654207065722061646472657373206578636565646564000000006000830152602082019050919050565b60006138dd602483614543565b91507f4552433732313a207472616e7366657220746f20746865207a65726f2061646460008301527f72657373000000000000000000000000000000000000000000000000000000006020830152604082019050919050565b6000613943601983614543565b91507f4552433732313a20617070726f766520746f2063616c6c6572000000000000006000830152602082019050919050565b6000613983601583614543565b91507f596f7520617265206e6f7420746865206f776e657200000000000000000000006000830152602082019050919050565b60006139c3602c83614543565b91507f4552433732313a206f70657261746f7220717565727920666f72206e6f6e657860008301527f697374656e7420746f6b656e00000000000000000000000000000000000000006020830152604082019050919050565b6000613a29603883614543565b91507f4552433732313a20617070726f76652063616c6c6572206973206e6f74206f7760008301527f6e6572206e6f7220617070726f76656420666f7220616c6c00000000000000006020830152604082019050919050565b6000613a8f602a83614543565b91507f4552433732313a2062616c616e636520717565727920666f7220746865207a6560008301527f726f2061646472657373000000000000000000000000000000000000000000006020830152604082019050919050565b6000613af5602983614543565b91507f4552433732313a206f776e657220717565727920666f72206e6f6e657869737460008301527f656e7420746f6b656e00000000000000000000000000000000000000000000006020830152604082019050919050565b6000613b5b601683614543565b91507f6d6178204e4654206c696d6974206578636565646564000000000000000000006000830152602082019050919050565b6000613b9b602483614543565b91507f6d6178206d696e7420616d6f756e74207065722073657373696f6e206578636560008301527f65646564000000000000000000000000000000000000000000000000000000006020830152604082019050919050565b6000613c01602083614543565b91507f4552433732313a206d696e7420746f20746865207a65726f20616464726573736000830152602082019050919050565b6000613c41602c83614543565b91507f4552433732313a20617070726f76656420717565727920666f72206e6f6e657860008301527f697374656e7420746f6b656e00000000000000000000000000000000000000006020830152604082019050919050565b6000613ca7602083614543565b91507f4f776e61626c653a2063616c6c6572206973206e6f7420746865206f776e65726000830152602082019050919050565b6000613ce7601683614543565b91507f74686520636f6e747261637420697320706175736564000000000000000000006000830152602082019050919050565b6000613d27602983614543565b91507f4552433732313a207472616e73666572206f6620746f6b656e2074686174206960008301527f73206e6f74206f776e00000000000000000000000000000000000000000000006020830152604082019050919050565b6000613d8d602f83614543565b91507f4552433732314d657461646174613a2055524920717565727920666f72206e6f60008301527f6e6578697374656e7420746f6b656e00000000000000000000000000000000006020830152604082019050919050565b6000613df3602183614543565b91507f4552433732313a20617070726f76616c20746f2063757272656e74206f776e6560008301527f72000000000000000000000000000000000000000000000000000000000000006020830152604082019050919050565b6000613e59600083614538565b9150600082019050919050565b6000613e73601283614543565b91507f696e73756666696369656e742066756e647300000000000000000000000000006000830152602082019050919050565b6000613eb3603183614543565b91507f4552433732313a207472616e736665722063616c6c6572206973206e6f74206f60008301527f776e6572206e6f7220617070726f7665640000000000000000000000000000006020830152604082019050919050565b6000613f19602c83614543565b91507f455243373231456e756d657261626c653a20676c6f62616c20696e646578206f60008301527f7574206f6620626f756e647300000000000000000000000000000000000000006020830152604082019050919050565b6000613f7f601b83614543565b91507f6e65656420746f206d696e74206174206c656173742031204e465400000000006000830152602082019050919050565b613fbb816146de565b82525050565b613fca816146de565b82525050565b6000613fdc828661366e565b9150613fe8828561366e565b9150613ff4828461369f565b9150819050949350505050565b600061400c82613e4c565b9150819050919050565b600060208201905061402b6000830184613571565b92915050565b60006080820190506140466000830187613571565b6140536020830186613571565b6140606040830185613fc1565b818103606083015261407281846135ed565b905095945050505050565b600060208201905081810360008301526140978184613580565b905092915050565b60006020820190506140b460008301846135de565b92915050565b60006020820190506140cf6000830184613626565b92915050565b600060208201905081810360008301526140ef8184613635565b905092915050565b600060208201905081810360008301526141108161371e565b9050919050565b6000602082019050818103600083015261413081613784565b9050919050565b60006020820190508181036000830152614150816137ea565b9050919050565b6000602082019050818103600083015261417081613850565b9050919050565b6000602082019050818103600083015261419081613890565b9050919050565b600060208201905081810360008301526141b0816138d0565b9050919050565b600060208201905081810360008301526141d081613936565b9050919050565b600060208201905081810360008301526141f081613976565b9050919050565b60006020820190508181036000830152614210816139b6565b9050919050565b6000602082019050818103600083015261423081613a1c565b9050919050565b6000602082019050818103600083015261425081613a82565b9050919050565b6000602082019050818103600083015261427081613ae8565b9050919050565b6000602082019050818103600083015261429081613b4e565b9050919050565b600060208201905081810360008301526142b081613b8e565b9050919050565b600060208201905081810360008301526142d081613bf4565b9050919050565b600060208201905081810360008301526142f081613c34565b9050919050565b6000602082019050818103600083015261431081613c9a565b9050919050565b6000602082019050818103600083015261433081613cda565b9050919050565b6000602082019050818103600083015261435081613d1a565b9050919050565b6000602082019050818103600083015261437081613d80565b9050919050565b6000602082019050818103600083015261439081613de6565b9050919050565b600060208201905081810360008301526143b081613e66565b9050919050565b600060208201905081810360008301526143d081613ea6565b9050919050565b600060208201905081810360008301526143f081613f0c565b9050919050565b6000602082019050818103600083015261441081613f72565b9050919050565b600060208201905061442c6000830184613fc1565b92915050565b6000604051905081810181811067ffffffffffffffff8211171561445957614458614887565b5b8060405250919050565b600067ffffffffffffffff82111561447e5761447d614887565b5b601f19601f8301169050602081019050919050565b600067ffffffffffffffff8211156144ae576144ad614887565b5b601f19601f8301169050602081019050919050565b6000819050602082019050919050565b60008190508160005260206000209050919050565b600081519050919050565b600081519050919050565b600081519050919050565b6000602082019050919050565b600082825260208201905092915050565b600082825260208201905092915050565b600081905092915050565b600082825260208201905092915050565b600081905092915050565b600061456a826146de565b9150614575836146de565b9250827fffffffffffffffffffffffffffffffffffffffffffffffffffffffffffffffff038211156145aa576145a96147fa565b5b828201905092915050565b60006145c0826146de565b91506145cb836146de565b9250826145db576145da614829565b5b828204905092915050565b60006145f1826146de565b91506145fc836146de565b9250817fffffffffffffffffffffffffffffffffffffffffffffffffffffffffffffffff0483118215151615614635576146346147fa565b5b828202905092915050565b600061464b826146de565b9150614656836146de565b925082821015614669576146686147fa565b5b828203905092915050565b600061467f826146be565b9050919050565b60008115159050919050565b60007fffffffff0000000000000000000000000000000000000000000000000000000082169050919050565b600073ffffffffffffffffffffffffffffffffffffffff82169050919050565b6000819050919050565b60006146f3826146fa565b9050919050565b6000614705826146be565b9050919050565b82818337600083830152505050565b60005b8381101561473957808201518184015260208101905061471e565b83811115614748576000848401525b50505050565b6000600282049050600182168061476657607f821691505b6020821081141561477a57614779614858565b5b50919050565b600061478b826146de565b91507fffffffffffffffffffffffffffffffffffffffffffffffffffffffffffffffff8214156147be576147bd6147fa565b5b600182019050919050565b60006147d4826146de565b91506147df836146de565b9250826147ef576147ee614829565b5b828206905092915050565b7f4e487b7100000000000000000000000000000000000000000000000000000000600052601160045260246000fd5b7f4e487b7100000000000000000000000000000000000000000000000000000000600052601260045260246000fd5b7f4e487b7100000000000000000000000000000000000000000000000000000000600052602260045260246000fd5b7f4e487b7100000000000000000000000000000000000000000000000000000000600052604160045260246000fd5b6000601f19601f8301169050919050565b6148d081614674565b81146148db57600080fd5b50565b6148e781614686565b81146148f257600080fd5b50565b6148fe81614692565b811461490957600080fd5b50565b614915816146de565b811461492057600080fd5b5056fe596f75206a757374206275726e20796f7572204c656d6d7920467269656e64203a2820a2646970667358221220e99af7768092d81be8e376f2261a5a291cff8329a5a7efd9f0f608b97521723264736f6c63430008000033",
  "linkReferences": {},
  "deployedLinkReferences": {}
}