{
  "_format": "hh-sol-artifact-1",
  "contractName": "One",
  "sourceName": "contracts/One.sol",
  "abi": [
    {
      "inputs": [
        {
          "internalType": "string",
          "name": "_initBaseURI",
          "type": "string"
        },
        {
          "internalType": "string",
          "name": "_initNotRevealedUri",
          "type": "string"
        }
      ],
      "stateMutability": "nonpayable",
      "type": "constructor"
    },
    {
      "anonymous": false,
      "inputs": [
        {
          "indexed": true,
          "internalType": "address",
          "name": "owner",
          "type": "address"
        },
        {
          "indexed": true,
          "internalType": "address",
          "name": "approved",
          "type": "address"
        },
        {
          "indexed": true,
          "internalType": "uint256",
          "name": "tokenId",
          "type": "uint256"
        }
      ],
      "name": "Approval",
      "type": "event"
    },
    {
      "anonymous": false,
      "inputs": [
        {
          "indexed": true,
          "internalType": "address",
          "name": "owner",
          "type": "address"
        },
        {
          "indexed": true,
          "internalType": "address",
          "name": "operator",
          "type": "address"
        },
        {
          "indexed": false,
          "internalType": "bool",
          "name": "approved",
          "type": "bool"
        }
      ],
      "name": "ApprovalForAll",
      "type": "event"
    },
    {
      "anonymous": false,
      "inputs": [
        {
          "indexed": true,
          "internalType": "address",
          "name": "previousOwner",
          "type": "address"
        },
        {
          "indexed": true,
          "internalType": "address",
          "name": "newOwner",
          "type": "address"
        }
      ],
      "name": "OwnershipTransferred",
      "type": "event"
    },
    {
      "anonymous": false,
      "inputs": [
        {
          "indexed": true,
          "internalType": "address",
          "name": "from",
          "type": "address"
        },
        {
          "indexed": true,
          "internalType": "address",
          "name": "to",
          "type": "address"
        },
        {
          "indexed": true,
          "internalType": "uint256",
          "name": "tokenId",
          "type": "uint256"
        }
      ],
      "name": "Transfer",
      "type": "event"
    },
    {
      "inputs": [],
      "name": "Juice",
      "outputs": [
        {
          "internalType": "contract IJuice",
          "name": "",
          "type": "address"
        }
      ],
      "stateMutability": "view",
      "type": "function"
    },
    {
      "inputs": [],
      "name": "TheGenesisAreSleeping",
      "outputs": [
        {
          "internalType": "bool",
          "name": "",
          "type": "bool"
        }
      ],
      "stateMutability": "view",
      "type": "function"
    },
    {
      "inputs": [
        {
          "internalType": "address",
          "name": "",
          "type": "address"
        }
      ],
      "name": "addressMintedBalance",
      "outputs": [
        {
          "internalType": "uint256",
          "name": "",
          "type": "uint256"
        }
      ],
      "stateMutability": "view",
      "type": "function"
    },
    {
      "inputs": [
        {
          "internalType": "address",
          "name": "to",
          "type": "address"
        },
        {
          "internalType": "uint256",
          "name": "tokenId",
          "type": "uint256"
        }
      ],
      "name": "approve",
      "outputs": [],
      "stateMutability": "nonpayable",
      "type": "function"
    },
    {
      "inputs": [
        {
          "internalType": "address",
          "name": "owner",
          "type": "address"
        }
      ],
      "name": "balanceOf",
      "outputs": [
        {
          "internalType": "uint256",
          "name": "",
          "type": "uint256"
        }
      ],
      "stateMutability": "view",
      "type": "function"
    },
    {
      "inputs": [],
      "name": "baseExtension",
      "outputs": [
        {
          "internalType": "bytes32",
          "name": "",
          "type": "bytes32"
        }
      ],
      "stateMutability": "view",
      "type": "function"
    },
    {
      "inputs": [],
      "name": "baseURI",
      "outputs": [
        {
          "internalType": "string",
          "name": "",
          "type": "string"
        }
      ],
      "stateMutability": "view",
      "type": "function"
    },
    {
      "inputs": [
        {
          "internalType": "uint256",
          "name": "_tokenId",
          "type": "uint256"
        }
      ],
      "name": "burnYourFriend",
      "outputs": [
        {
          "internalType": "string",
          "name": "",
          "type": "string"
        }
      ],
      "stateMutability": "nonpayable",
      "type": "function"
    },
    {
      "inputs": [],
      "name": "cost",
      "outputs": [
        {
          "internalType": "uint256",
          "name": "",
          "type": "uint256"
        }
      ],
      "stateMutability": "view",
      "type": "function"
    },
    {
      "inputs": [
        {
          "internalType": "uint256",
          "name": "tokenId",
          "type": "uint256"
        }
      ],
      "name": "getApproved",
      "outputs": [
        {
          "internalType": "address",
          "name": "",
          "type": "address"
        }
      ],
      "stateMutability": "view",
      "type": "function"
    },
    {
      "inputs": [
        {
          "internalType": "address",
          "name": "owner",
          "type": "address"
        },
        {
          "internalType": "address",
          "name": "operator",
          "type": "address"
        }
      ],
      "name": "isApprovedForAll",
      "outputs": [
        {
          "internalType": "bool",
          "name": "",
          "type": "bool"
        }
      ],
      "stateMutability": "view",
      "type": "function"
    },
    {
      "inputs": [
        {
          "internalType": "address",
          "name": "_user",
          "type": "address"
        }
      ],
      "name": "isWhitelisted",
      "outputs": [
        {
          "internalType": "bool",
          "name": "",
          "type": "bool"
        }
      ],
      "stateMutability": "view",
      "type": "function"
    },
    {
      "inputs": [],
      "name": "maxMintAmount",
      "outputs": [
        {
          "internalType": "uint256",
          "name": "",
          "type": "uint256"
        }
      ],
      "stateMutability": "view",
      "type": "function"
    },
    {
      "inputs": [],
      "name": "maxSupply",
      "outputs": [
        {
          "internalType": "uint256",
          "name": "",
          "type": "uint256"
        }
      ],
      "stateMutability": "view",
      "type": "function"
    },
    {
      "inputs": [
        {
          "internalType": "uint256",
          "name": "_mintAmount",
          "type": "uint256"
        }
      ],
      "name": "mint",
      "outputs": [],
      "stateMutability": "payable",
      "type": "function"
    },
    {
      "inputs": [],
      "name": "name",
      "outputs": [
        {
          "internalType": "string",
          "name": "",
          "type": "string"
        }
      ],
      "stateMutability": "view",
      "type": "function"
    },
    {
      "inputs": [],
      "name": "nftPerAddressLimit",
      "outputs": [
        {
          "internalType": "uint256",
          "name": "",
          "type": "uint256"
        }
      ],
      "stateMutability": "view",
      "type": "function"
    },
    {
      "inputs": [],
      "name": "notRevealedUri",
      "outputs": [
        {
          "internalType": "string",
          "name": "",
          "type": "string"
        }
      ],
      "stateMutability": "view",
      "type": "function"
    },
    {
      "inputs": [],
      "name": "onlyWhitelisted",
      "outputs": [
        {
          "internalType": "bool",
          "name": "",
          "type": "bool"
        }
      ],
      "stateMutability": "view",
      "type": "function"
    },
    {
      "inputs": [],
      "name": "owner",
      "outputs": [
        {
          "internalType": "address",
          "name": "",
          "type": "address"
        }
      ],
      "stateMutability": "view",
      "type": "function"
    },
    {
      "inputs": [
        {
          "internalType": "uint256",
          "name": "tokenId",
          "type": "uint256"
        }
      ],
      "name": "ownerOf",
      "outputs": [
        {
          "internalType": "address",
          "name": "",
          "type": "address"
        }
      ],
      "stateMutability": "view",
      "type": "function"
    },
    {
      "inputs": [
        {
          "internalType": "bool",
          "name": "_state",
          "type": "bool"
        }
      ],
      "name": "pause",
      "outputs": [],
      "stateMutability": "nonpayable",
      "type": "function"
    },
    {
      "inputs": [],
      "name": "paused",
      "outputs": [
        {
          "internalType": "bool",
          "name": "",
          "type": "bool"
        }
      ],
      "stateMutability": "view",
      "type": "function"
    },
    {
      "inputs": [],
      "name": "renounceOwnership",
      "outputs": [],
      "stateMutability": "nonpayable",
      "type": "function"
    },
    {
      "inputs": [],
      "name": "reveal",
      "outputs": [],
      "stateMutability": "nonpayable",
      "type": "function"
    },
    {
      "inputs": [],
      "name": "revealed",
      "outputs": [
        {
          "internalType": "bool",
          "name": "",
          "type": "bool"
        }
      ],
      "stateMutability": "view",
      "type": "function"
    },
    {
      "inputs": [
        {
          "internalType": "address",
          "name": "from",
          "type": "address"
        },
        {
          "internalType": "address",
          "name": "to",
          "type": "address"
        },
        {
          "internalType": "uint256",
          "name": "tokenId",
          "type": "uint256"
        }
      ],
      "name": "safeTransferFrom",
      "outputs": [],
      "stateMutability": "nonpayable",
      "type": "function"
    },
    {
      "inputs": [
        {
          "internalType": "address",
          "name": "from",
          "type": "address"
        },
        {
          "internalType": "address",
          "name": "to",
          "type": "address"
        },
        {
          "internalType": "uint256",
          "name": "tokenId",
          "type": "uint256"
        },
        {
          "internalType": "bytes",
          "name": "data",
          "type": "bytes"
        }
      ],
      "name": "safeTransferFrom",
      "outputs": [],
      "stateMutability": "nonpayable",
      "type": "function"
    },
    {
      "inputs": [
        {
          "internalType": "address",
          "name": "operator",
          "type": "address"
        },
        {
          "internalType": "bool",
          "name": "approved",
          "type": "bool"
        }
      ],
      "name": "setApprovalForAll",
      "outputs": [],
      "stateMutability": "nonpayable",
      "type": "function"
    },
    {
      "inputs": [
        {
          "internalType": "bytes32",
          "name": "_newBaseExtension",
          "type": "bytes32"
        }
      ],
      "name": "setBaseExtension",
      "outputs": [],
      "stateMutability": "nonpayable",
      "type": "function"
    },
    {
      "inputs": [
        {
          "internalType": "string",
          "name": "_newBaseURI",
          "type": "string"
        }
      ],
      "name": "setBaseURI",
      "outputs": [],
      "stateMutability": "nonpayable",
      "type": "function"
    },
    {
      "inputs": [
        {
          "internalType": "address",
          "name": "_juiceAddress",
          "type": "address"
        }
      ],
      "name": "setLemonJuiceMachine",
      "outputs": [],
      "stateMutability": "nonpayable",
      "type": "function"
    },
    {
      "inputs": [
        {
          "internalType": "string",
          "name": "_notRevealedURI",
          "type": "string"
        }
      ],
      "name": "setNotRevealedURI",
      "outputs": [],
      "stateMutability": "nonpayable",
      "type": "function"
    },
    {
      "inputs": [
        {
          "internalType": "bool",
          "name": "_state",
          "type": "bool"
        }
      ],
      "name": "setOnlyWhitelisted",
      "outputs": [],
      "stateMutability": "nonpayable",
      "type": "function"
    },
    {
      "inputs": [
        {
          "internalType": "bytes4",
          "name": "interfaceId",
          "type": "bytes4"
        }
      ],
      "name": "supportsInterface",
      "outputs": [
        {
          "internalType": "bool",
          "name": "",
          "type": "bool"
        }
      ],
      "stateMutability": "view",
      "type": "function"
    },
    {
      "inputs": [],
      "name": "symbol",
      "outputs": [
        {
          "internalType": "string",
          "name": "",
          "type": "string"
        }
      ],
      "stateMutability": "view",
      "type": "function"
    },
    {
      "inputs": [
        {
          "internalType": "uint256",
          "name": "index",
          "type": "uint256"
        }
      ],
      "name": "tokenByIndex",
      "outputs": [
        {
          "internalType": "uint256",
          "name": "",
          "type": "uint256"
        }
      ],
      "stateMutability": "view",
      "type": "function"
    },
    {
      "inputs": [
        {
          "internalType": "address",
          "name": "owner",
          "type": "address"
        },
        {
          "internalType": "uint256",
          "name": "index",
          "type": "uint256"
        }
      ],
      "name": "tokenOfOwnerByIndex",
      "outputs": [
        {
          "internalType": "uint256",
          "name": "",
          "type": "uint256"
        }
      ],
      "stateMutability": "view",
      "type": "function"
    },
    {
      "inputs": [
        {
          "internalType": "uint256",
          "name": "tokenId",
          "type": "uint256"
        }
      ],
      "name": "tokenURI",
      "outputs": [
        {
          "internalType": "string",
          "name": "",
          "type": "string"
        }
      ],
      "stateMutability": "view",
      "type": "function"
    },
    {
      "inputs": [],
      "name": "totalSupply",
      "outputs": [
        {
          "internalType": "uint256",
          "name": "",
          "type": "uint256"
        }
      ],
      "stateMutability": "view",
      "type": "function"
    },
    {
      "inputs": [
        {
          "internalType": "address",
          "name": "from",
          "type": "address"
        },
        {
          "internalType": "address",
          "name": "to",
          "type": "address"
        },
        {
          "internalType": "uint256",
          "name": "tokenId",
          "type": "uint256"
        }
      ],
      "name": "transferFrom",
      "outputs": [],
      "stateMutability": "nonpayable",
      "type": "function"
    },
    {
      "inputs": [
        {
          "internalType": "address",
          "name": "newOwner",
          "type": "address"
        }
      ],
      "name": "transferOwnership",
      "outputs": [],
      "stateMutability": "nonpayable",
      "type": "function"
    },
    {
      "inputs": [
        {
          "internalType": "address",
          "name": "_owner",
          "type": "address"
        }
      ],
      "name": "walletOfOwner",
      "outputs": [
        {
          "internalType": "uint256[]",
          "name": "",
          "type": "uint256[]"
        }
      ],
      "stateMutability": "view",
      "type": "function"
    },
    {
      "inputs": [
        {
          "internalType": "address[]",
          "name": "_users",
          "type": "address[]"
        }
      ],
      "name": "whitelistUsers",
      "outputs": [],
      "stateMutability": "nonpayable",
      "type": "function"
    },
    {
      "inputs": [
        {
          "internalType": "uint256",
          "name": "",
          "type": "uint256"
        }
      ],
      "name": "whitelistedAddresses",
      "outputs": [
        {
          "internalType": "address",
          "name": "",
          "type": "address"
        }
      ],
      "stateMutability": "view",
      "type": "function"
    },
    {
      "inputs": [],
      "name": "withdraw",
      "outputs": [],
      "stateMutability": "payable",
      "type": "function"
    },
    {
      "inputs": [],
      "name": "wlMaxPerTx",
      "outputs": [
        {
          "internalType": "uint256",
          "name": "",
          "type": "uint256"
        }
      ],
      "stateMutability": "view",
      "type": "function"
    },
    {
      "inputs": [],
      "name": "wlMaxPerWallet",
      "outputs": [
        {
          "internalType": "uint256",
          "name": "",
          "type": "uint256"
        }
      ],
      "stateMutability": "view",
      "type": "function"
    }
  ],
  "bytecode": "0x60806040527f2e6a736f6e000000000000000000000000000000000000000000000000000000600c556000600e55612710600f5560016010556001601155600160125560016013556000601460006101000a81548160ff0219169083151502179055506001601460016101000a81548160ff0219169083151502179055506000601460026101000a81548160ff0219169083151502179055506001601460036101000a81548160ff021916908315150217905550348015620000c057600080fd5b5060405162005874380380620058748339818101604052810190620000e6919062000540565b6040518060400160405280600681526020017f4c656d6d797300000000000000000000000000000000000000000000000000008152506040518060400160405280600381526020017f4c454d000000000000000000000000000000000000000000000000000000000081525081600090805190602001906200016a9291906200041e565b508060019080519060200190620001839291906200041e565b505050620001a66200019a620001d060201b60201c565b620001d860201b60201c565b620001b7826200029e60201b60201c565b620001c8816200034960201b60201c565b505062000759565b600033905090565b6000600a60009054906101000a900473ffffffffffffffffffffffffffffffffffffffff16905081600a60006101000a81548173ffffffffffffffffffffffffffffffffffffffff021916908373ffffffffffffffffffffffffffffffffffffffff1602179055508173ffffffffffffffffffffffffffffffffffffffff168173ffffffffffffffffffffffffffffffffffffffff167f8be0079c531659141344cd1fd0a4f28419497f9722a3daafe3b4186f6b6457e060405160405180910390a35050565b620002ae620001d060201b60201c565b73ffffffffffffffffffffffffffffffffffffffff16620002d4620003f460201b60201c565b73ffffffffffffffffffffffffffffffffffffffff16146200032d576040517f08c379a00000000000000000000000000000000000000000000000000000000081526004016200032490620005f5565b60405180910390fd5b80600b9080519060200190620003459291906200041e565b5050565b62000359620001d060201b60201c565b73ffffffffffffffffffffffffffffffffffffffff166200037f620003f460201b60201c565b73ffffffffffffffffffffffffffffffffffffffff1614620003d8576040517f08c379a0000000000000000000000000000000000000000000000000000000008152600401620003cf90620005f5565b60405180910390fd5b80600d9080519060200190620003f09291906200041e565b5050565b6000600a60009054906101000a900473ffffffffffffffffffffffffffffffffffffffff16905090565b8280546200042c90620006c5565b90600052602060002090601f0160209004810192826200045057600085556200049c565b82601f106200046b57805160ff19168380011785556200049c565b828001600101855582156200049c579182015b828111156200049b5782518255916020019190600101906200047e565b5b509050620004ab9190620004af565b5090565b5b80821115620004ca576000816000905550600101620004b0565b5090565b6000620004e5620004df846200064b565b62000617565b905082815260208101848484011115620004fe57600080fd5b6200050b8482856200068f565b509392505050565b600082601f8301126200052557600080fd5b815162000537848260208601620004ce565b91505092915050565b600080604083850312156200055457600080fd5b600083015167ffffffffffffffff8111156200056f57600080fd5b6200057d8582860162000513565b925050602083015167ffffffffffffffff8111156200059b57600080fd5b620005a98582860162000513565b9150509250929050565b6000620005c26020836200067e565b91507f4f776e61626c653a2063616c6c6572206973206e6f7420746865206f776e65726000830152602082019050919050565b600060208201905081810360008301526200061081620005b3565b9050919050565b6000604051905081810181811067ffffffffffffffff821117156200064157620006406200072a565b5b8060405250919050565b600067ffffffffffffffff8211156200066957620006686200072a565b5b601f19601f8301169050602081019050919050565b600082825260208201905092915050565b60005b83811015620006af57808201518184015260208101905062000692565b83811115620006bf576000848401525b50505050565b60006002820490506001821680620006de57607f821691505b60208210811415620006f557620006f4620006fb565b5b50919050565b7f4e487b7100000000000000000000000000000000000000000000000000000000600052602260045260246000fd5b7f4e487b7100000000000000000000000000000000000000000000000000000000600052604160045260246000fd5b61510b80620007696000396000f3fe6080604052600436106102935760003560e01c806355f804b31161015a578063a475b5dd116100c1578063d5abeb011161007a578063d5abeb0114610a12578063e985e9c514610a3d578063edec5f2714610a7a578063f2c4ce1e14610aa3578063f2fde38b14610acc578063f89dd6c814610af557610293565b8063a475b5dd14610902578063b88d4fde14610919578063ba4e5c4914610942578063ba7d2c761461097f578063c6682862146109aa578063c87b56dd146109d557610293565b80638da5cb5b116101135780638da5cb5b1461081157806395d89b411461083c5780639aab86b4146108675780639c70b51214610892578063a0712d68146108bd578063a22cb465146108d957610293565b806355f804b3146107015780635c975abb1461072a5780636352211e146107555780636c0360eb1461079257806370a08231146107bd578063715018a6146107fa57610293565b806323b872dd116101fe57806342842e0e116101b757806342842e0e146105df578063438b6300146106085780634f6ccce7146106455780634fc573be1461068257806351830227146106ab57806352561338146106d657610293565b806323b872dd146104e05780632f745c591461050957806339c849af146105465780633af32abf1461056f5780633c952764146105ac5780633ccfd60b146105d557610293565b8063095ea7b311610250578063095ea7b3146103bc57806313faede6146103e557806318160ddd1461041057806318cae2691461043b5780631b958f8414610478578063239c70ae146104b557610293565b806301ffc9a71461029857806302329a29146102d557806304e4beb8146102fe57806306fdde0314610329578063081812fc14610354578063081c8c4414610391575b600080fd5b3480156102a457600080fd5b506102bf60048036038101906102ba9190613bf0565b610b20565b6040516102cc91906147dd565b60405180910390f35b3480156102e157600080fd5b506102fc60048036038101906102f79190613b9e565b610b9a565b005b34801561030a57600080fd5b50610313610c33565b6040516103209190614b90565b60405180910390f35b34801561033557600080fd5b5061033e610c39565b60405161034b919061482e565b60405180910390f35b34801561036057600080fd5b5061037b60048036038101906103769190613c83565b610ccb565b6040516103889190614754565b60405180910390f35b34801561039d57600080fd5b506103a6610d50565b6040516103b3919061482e565b60405180910390f35b3480156103c857600080fd5b506103e360048036038101906103de9190613b1d565b610dde565b005b3480156103f157600080fd5b506103fa610ef6565b6040516104079190614b90565b60405180910390f35b34801561041c57600080fd5b50610425610efc565b6040516104329190614b90565b60405180910390f35b34801561044757600080fd5b50610462600480360381019061045d91906139b2565b610f09565b60405161046f9190614b90565b60405180910390f35b34801561048457600080fd5b5061049f600480360381019061049a9190613c83565b610f21565b6040516104ac919061482e565b60405180910390f35b3480156104c157600080fd5b506104ca610fc6565b6040516104d79190614b90565b60405180910390f35b3480156104ec57600080fd5b5061050760048036038101906105029190613a17565b610fcc565b005b34801561051557600080fd5b50610530600480360381019061052b9190613b1d565b610fdc565b60405161053d9190614b90565b60405180910390f35b34801561055257600080fd5b5061056d60048036038101906105689190613bc7565b611081565b005b34801561057b57600080fd5b50610596600480360381019061059191906139b2565b611107565b6040516105a391906147dd565b60405180910390f35b3480156105b857600080fd5b506105d360048036038101906105ce9190613b9e565b6111dc565b005b6105dd611275565b005b3480156105eb57600080fd5b5061060660048036038101906106019190613a17565b61136a565b005b34801561061457600080fd5b5061062f600480360381019061062a91906139b2565b61138a565b60405161063c91906147bb565b60405180910390f35b34801561065157600080fd5b5061066c60048036038101906106679190613c83565b611484565b6040516106799190614b90565b60405180910390f35b34801561068e57600080fd5b506106a960048036038101906106a491906139b2565b61151b565b005b3480156106b757600080fd5b506106c06115db565b6040516106cd91906147dd565b60405180910390f35b3480156106e257600080fd5b506106eb6115ee565b6040516106f891906147dd565b60405180910390f35b34801561070d57600080fd5b5061072860048036038101906107239190613c42565b611601565b005b34801561073657600080fd5b5061073f611697565b60405161074c91906147dd565b60405180910390f35b34801561076157600080fd5b5061077c60048036038101906107779190613c83565b6116aa565b6040516107899190614754565b60405180910390f35b34801561079e57600080fd5b506107a761175c565b6040516107b4919061482e565b60405180910390f35b3480156107c957600080fd5b506107e460048036038101906107df91906139b2565b6117ea565b6040516107f19190614b90565b60405180910390f35b34801561080657600080fd5b5061080f6118a2565b005b34801561081d57600080fd5b5061082661192a565b6040516108339190614754565b60405180910390f35b34801561084857600080fd5b50610851611954565b60405161085e919061482e565b60405180910390f35b34801561087357600080fd5b5061087c6119e6565b6040516108899190614813565b60405180910390f35b34801561089e57600080fd5b506108a7611a0c565b6040516108b491906147dd565b60405180910390f35b6108d760048036038101906108d29190613c83565b611a1f565b005b3480156108e557600080fd5b5061090060048036038101906108fb9190613ae1565b611dbf565b005b34801561090e57600080fd5b50610917611f40565b005b34801561092557600080fd5b50610940600480360381019061093b9190613a66565b611fd9565b005b34801561094e57600080fd5b5061096960048036038101906109649190613c83565b611feb565b6040516109769190614754565b60405180910390f35b34801561098b57600080fd5b5061099461202a565b6040516109a19190614b90565b60405180910390f35b3480156109b657600080fd5b506109bf612030565b6040516109cc91906147f8565b60405180910390f35b3480156109e157600080fd5b506109fc60048036038101906109f79190613c83565b612036565b604051610a09919061482e565b60405180910390f35b348015610a1e57600080fd5b50610a27612190565b604051610a349190614b90565b60405180910390f35b348015610a4957600080fd5b50610a646004803603810190610a5f91906139db565b612196565b604051610a7191906147dd565b60405180910390f35b348015610a8657600080fd5b50610aa16004803603810190610a9c9190613b59565b61222a565b005b348015610aaf57600080fd5b50610aca6004803603810190610ac59190613c42565b6122ca565b005b348015610ad857600080fd5b50610af36004803603810190610aee91906139b2565b612360565b005b348015610b0157600080fd5b50610b0a612458565b604051610b179190614b90565b60405180910390f35b60007f780e9d63000000000000000000000000000000000000000000000000000000007bffffffffffffffffffffffffffffffffffffffffffffffffffffffff1916827bffffffffffffffffffffffffffffffffffffffffffffffffffffffff19161480610b935750610b928261245e565b5b9050919050565b610ba2612540565b73ffffffffffffffffffffffffffffffffffffffff16610bc061192a565b73ffffffffffffffffffffffffffffffffffffffff1614610c16576040517f08c379a0000000000000000000000000000000000000000000000000000000008152600401610c0d90614a50565b60405180910390fd5b80601460006101000a81548160ff02191690831515021790555050565b60135481565b606060008054610c4890614ebc565b80601f0160208091040260200160405190810160405280929190818152602001828054610c7490614ebc565b8015610cc15780601f10610c9657610100808354040283529160200191610cc1565b820191906000526020600020905b815481529060010190602001808311610ca457829003601f168201915b5050505050905090565b6000610cd682612548565b610d15576040517f08c379a0000000000000000000000000000000000000000000000000000000008152600401610d0c90614a30565b60405180910390fd5b6004600083815260200190815260200160002060009054906101000a900473ffffffffffffffffffffffffffffffffffffffff169050919050565b600d8054610d5d90614ebc565b80601f0160208091040260200160405190810160405280929190818152602001828054610d8990614ebc565b8015610dd65780601f10610dab57610100808354040283529160200191610dd6565b820191906000526020600020905b815481529060010190602001808311610db957829003601f168201915b505050505081565b6000610de9826116aa565b90508073ffffffffffffffffffffffffffffffffffffffff168373ffffffffffffffffffffffffffffffffffffffff161415610e5a576040517f08c379a0000000000000000000000000000000000000000000000000000000008152600401610e5190614ad0565b60405180910390fd5b8073ffffffffffffffffffffffffffffffffffffffff16610e79612540565b73ffffffffffffffffffffffffffffffffffffffff161480610ea85750610ea781610ea2612540565b612196565b5b610ee7576040517f08c379a0000000000000000000000000000000000000000000000000000000008152600401610ede90614970565b60405180910390fd5b610ef183836125b4565b505050565b600e5481565b6000600880549050905090565b60176020528060005260406000206000915090505481565b60603373ffffffffffffffffffffffffffffffffffffffff16610f43836116aa565b73ffffffffffffffffffffffffffffffffffffffff1614610f99576040517f08c379a0000000000000000000000000000000000000000000000000000000008152600401610f9090614930565b60405180910390fd5b610fa63361dead8461266d565b6040518060600160405280602381526020016150b3602391399050919050565b60105481565b610fd78383836128c9565b505050565b6000610fe7836117ea565b8210611028576040517f08c379a000000000000000000000000000000000000000000000000000000000815260040161101f90614850565b60405180910390fd5b600660008473ffffffffffffffffffffffffffffffffffffffff1673ffffffffffffffffffffffffffffffffffffffff168152602001908152602001600020600083815260200190815260200160002054905092915050565b611089612540565b73ffffffffffffffffffffffffffffffffffffffff166110a761192a565b73ffffffffffffffffffffffffffffffffffffffff16146110fd576040517f08c379a00000000000000000000000000000000000000000000000000000000081526004016110f490614a50565b60405180910390fd5b80600c8190555050565b600080600090505b6015805490508110156111d1578273ffffffffffffffffffffffffffffffffffffffff166015828154811061116d577f4e487b7100000000000000000000000000000000000000000000000000000000600052603260045260246000fd5b9060005260206000200160009054906101000a900473ffffffffffffffffffffffffffffffffffffffff1673ffffffffffffffffffffffffffffffffffffffff1614156111be5760019150506111d7565b80806111c990614eee565b91505061110f565b50600090505b919050565b6111e4612540565b73ffffffffffffffffffffffffffffffffffffffff1661120261192a565b73ffffffffffffffffffffffffffffffffffffffff1614611258576040517f08c379a000000000000000000000000000000000000000000000000000000000815260040161124f90614a50565b60405180910390fd5b80601460036101000a81548160ff02191690831515021790555050565b61127d612540565b73ffffffffffffffffffffffffffffffffffffffff1661129b61192a565b73ffffffffffffffffffffffffffffffffffffffff16146112f1576040517f08c379a00000000000000000000000000000000000000000000000000000000081526004016112e890614a50565b60405180910390fd5b60003373ffffffffffffffffffffffffffffffffffffffff16476040516113179061473f565b60006040518083038185875af1925050503d8060008114611354576040519150601f19603f3d011682016040523d82523d6000602084013e611359565b606091505b505090508061136757600080fd5b50565b61138583838360405180602001604052806000815250611fd9565b505050565b60606000611397836117ea565b905060008167ffffffffffffffff8111156113db577f4e487b7100000000000000000000000000000000000000000000000000000000600052604160045260246000fd5b6040519080825280602002602001820160405280156114095781602001602082028036833780820191505090505b50905060005b82811015611479576114218582610fdc565b82828151811061145a577f4e487b7100000000000000000000000000000000000000000000000000000000600052603260045260246000fd5b602002602001018181525050808061147190614eee565b91505061140f565b508092505050919050565b600061148e610efc565b82106114cf576040517f08c379a00000000000000000000000000000000000000000000000000000000081526004016114c690614b30565b60405180910390fd5b60088281548110611509577f4e487b7100000000000000000000000000000000000000000000000000000000600052603260045260246000fd5b90600052602060002001549050919050565b611523612540565b73ffffffffffffffffffffffffffffffffffffffff1661154161192a565b73ffffffffffffffffffffffffffffffffffffffff1614611597576040517f08c379a000000000000000000000000000000000000000000000000000000000815260040161158e90614a50565b60405180910390fd5b80601860006101000a81548173ffffffffffffffffffffffffffffffffffffffff021916908373ffffffffffffffffffffffffffffffffffffffff16021790555050565b601460029054906101000a900460ff1681565b601460019054906101000a900460ff1681565b611609612540565b73ffffffffffffffffffffffffffffffffffffffff1661162761192a565b73ffffffffffffffffffffffffffffffffffffffff161461167d576040517f08c379a000000000000000000000000000000000000000000000000000000000815260040161167490614a50565b60405180910390fd5b80600b90805190602001906116939291906136b6565b5050565b601460009054906101000a900460ff1681565b6000806002600084815260200190815260200160002060009054906101000a900473ffffffffffffffffffffffffffffffffffffffff169050600073ffffffffffffffffffffffffffffffffffffffff168173ffffffffffffffffffffffffffffffffffffffff161415611753576040517f08c379a000000000000000000000000000000000000000000000000000000000815260040161174a906149b0565b60405180910390fd5b80915050919050565b600b805461176990614ebc565b80601f016020809104026020016040519081016040528092919081815260200182805461179590614ebc565b80156117e25780601f106117b7576101008083540402835291602001916117e2565b820191906000526020600020905b8154815290600101906020018083116117c557829003601f168201915b505050505081565b60008073ffffffffffffffffffffffffffffffffffffffff168273ffffffffffffffffffffffffffffffffffffffff16141561185b576040517f08c379a000000000000000000000000000000000000000000000000000000000815260040161185290614990565b60405180910390fd5b600360008373ffffffffffffffffffffffffffffffffffffffff1673ffffffffffffffffffffffffffffffffffffffff168152602001908152602001600020549050919050565b6118aa612540565b73ffffffffffffffffffffffffffffffffffffffff166118c861192a565b73ffffffffffffffffffffffffffffffffffffffff161461191e576040517f08c379a000000000000000000000000000000000000000000000000000000000815260040161191590614a50565b60405180910390fd5b6119286000612929565b565b6000600a60009054906101000a900473ffffffffffffffffffffffffffffffffffffffff16905090565b60606001805461196390614ebc565b80601f016020809104026020016040519081016040528092919081815260200182805461198f90614ebc565b80156119dc5780601f106119b1576101008083540402835291602001916119dc565b820191906000526020600020905b8154815290600101906020018083116119bf57829003601f168201915b5050505050905090565b601860009054906101000a900473ffffffffffffffffffffffffffffffffffffffff1681565b601460039054906101000a900460ff1681565b601460009054906101000a900460ff1615611a6f576040517f08c379a0000000000000000000000000000000000000000000000000000000008152600401611a6690614a70565b60405180910390fd5b6000611a79610efc565b905060008211611abe576040517f08c379a0000000000000000000000000000000000000000000000000000000008152600401611ab590614b70565b60405180910390fd5b601054821115611b03576040517f08c379a0000000000000000000000000000000000000000000000000000000008152600401611afa906149f0565b60405180910390fd5b600f548282611b129190614cc3565b1115611b53576040517f08c379a0000000000000000000000000000000000000000000000000000000008152600401611b4a906149d0565b60405180910390fd5b6000601760003373ffffffffffffffffffffffffffffffffffffffff1673ffffffffffffffffffffffffffffffffffffffff16815260200190815260200160002054905082600e54611ba59190614d4a565b341015611be7576040517f08c379a0000000000000000000000000000000000000000000000000000000008152600401611bde90614af0565b60405180910390fd5b6011548382611bf69190614cc3565b1115611c37576040517f08c379a0000000000000000000000000000000000000000000000000000000008152600401611c2e906148d0565b60405180910390fd5b60011515601460039054906101000a900460ff1615151415611d3157611c5c33611107565b611c9b576040517f08c379a0000000000000000000000000000000000000000000000000000000008152600401611c9290614b50565b60405180910390fd5b601254831115611ce0576040517f08c379a0000000000000000000000000000000000000000000000000000000008152600401611cd7906149f0565b60405180910390fd5b6013548382611cef9190614cc3565b1115611d30576040517f08c379a0000000000000000000000000000000000000000000000000000000008152600401611d27906148d0565b60405180910390fd5b5b60005b83811015611db957601760003373ffffffffffffffffffffffffffffffffffffffff1673ffffffffffffffffffffffffffffffffffffffff1681526020019081526020016000206000815480929190611d8c90614eee565b9190505550611da6338285611da19190614cc3565b6129ef565b8080611db190614eee565b915050611d34565b50505050565b611dc7612540565b73ffffffffffffffffffffffffffffffffffffffff168273ffffffffffffffffffffffffffffffffffffffff161415611e35576040517f08c379a0000000000000000000000000000000000000000000000000000000008152600401611e2c90614910565b60405180910390fd5b8060056000611e42612540565b73ffffffffffffffffffffffffffffffffffffffff1673ffffffffffffffffffffffffffffffffffffffff16815260200190815260200160002060008473ffffffffffffffffffffffffffffffffffffffff1673ffffffffffffffffffffffffffffffffffffffff16815260200190815260200160002060006101000a81548160ff0219169083151502179055508173ffffffffffffffffffffffffffffffffffffffff16611eef612540565b73ffffffffffffffffffffffffffffffffffffffff167f17307eab39ab6107e8899845ad3d59bd9653f200f220920489ca2b5937696c3183604051611f3491906147dd565b60405180910390a35050565b611f48612540565b73ffffffffffffffffffffffffffffffffffffffff16611f6661192a565b73ffffffffffffffffffffffffffffffffffffffff1614611fbc576040517f08c379a0000000000000000000000000000000000000000000000000000000008152600401611fb390614a50565b60405180910390fd5b6001601460026101000a81548160ff021916908315150217905550565b611fe584848484612a0d565b50505050565b60158181548110611ffb57600080fd5b906000526020600020016000915054906101000a900473ffffffffffffffffffffffffffffffffffffffff1681565b60115481565b600c5481565b606061204182612548565b612080576040517f08c379a000000000000000000000000000000000000000000000000000000000815260040161207790614ab0565b60405180910390fd5b60001515601460029054906101000a900460ff161515141561212e57600d80546120a990614ebc565b80601f01602080910402602001604051908101604052809291908181526020018280546120d590614ebc565b80156121225780601f106120f757610100808354040283529160200191612122565b820191906000526020600020905b81548152906001019060200180831161210557829003601f168201915b5050505050905061218b565b6000612138612a6f565b905060008151116121585760405180602001604052806000815250612187565b8061216284612b01565b600c546040516020016121779392919061470a565b6040516020818303038152906040525b9150505b919050565b600f5481565b6000600560008473ffffffffffffffffffffffffffffffffffffffff1673ffffffffffffffffffffffffffffffffffffffff16815260200190815260200160002060008373ffffffffffffffffffffffffffffffffffffffff1673ffffffffffffffffffffffffffffffffffffffff16815260200190815260200160002060009054906101000a900460ff16905092915050565b612232612540565b73ffffffffffffffffffffffffffffffffffffffff1661225061192a565b73ffffffffffffffffffffffffffffffffffffffff16146122a6576040517f08c379a000000000000000000000000000000000000000000000000000000000815260040161229d90614a50565b60405180910390fd5b601560006122b4919061373c565b8181601591906122c592919061375d565b505050565b6122d2612540565b73ffffffffffffffffffffffffffffffffffffffff166122f061192a565b73ffffffffffffffffffffffffffffffffffffffff1614612346576040517f08c379a000000000000000000000000000000000000000000000000000000000815260040161233d90614a50565b60405180910390fd5b80600d908051906020019061235c9291906136b6565b5050565b612368612540565b73ffffffffffffffffffffffffffffffffffffffff1661238661192a565b73ffffffffffffffffffffffffffffffffffffffff16146123dc576040517f08c379a00000000000000000000000000000000000000000000000000000000081526004016123d390614a50565b60405180910390fd5b600073ffffffffffffffffffffffffffffffffffffffff168173ffffffffffffffffffffffffffffffffffffffff16141561244c576040517f08c379a000000000000000000000000000000000000000000000000000000000815260040161244390614890565b60405180910390fd5b61245581612929565b50565b60125481565b60007f80ac58cd000000000000000000000000000000000000000000000000000000007bffffffffffffffffffffffffffffffffffffffffffffffffffffffff1916827bffffffffffffffffffffffffffffffffffffffffffffffffffffffff1916148061252957507f5b5e139f000000000000000000000000000000000000000000000000000000007bffffffffffffffffffffffffffffffffffffffffffffffffffffffff1916827bffffffffffffffffffffffffffffffffffffffffffffffffffffffff1916145b80612539575061253882612cae565b5b9050919050565b600033905090565b60008073ffffffffffffffffffffffffffffffffffffffff166002600084815260200190815260200160002060009054906101000a900473ffffffffffffffffffffffffffffffffffffffff1673ffffffffffffffffffffffffffffffffffffffff1614159050919050565b816004600083815260200190815260200160002060006101000a81548173ffffffffffffffffffffffffffffffffffffffff021916908373ffffffffffffffffffffffffffffffffffffffff160217905550808273ffffffffffffffffffffffffffffffffffffffff16612627836116aa565b73ffffffffffffffffffffffffffffffffffffffff167f8c5be1e5ebec7d5bd14f71427d1e84f3dd0314c0f7b2291e5b200ac8c7c3b92560405160405180910390a45050565b8273ffffffffffffffffffffffffffffffffffffffff1661268d826116aa565b73ffffffffffffffffffffffffffffffffffffffff16146126e3576040517f08c379a00000000000000000000000000000000000000000000000000000000081526004016126da90614a90565b60405180910390fd5b600073ffffffffffffffffffffffffffffffffffffffff168273ffffffffffffffffffffffffffffffffffffffff161415612753576040517f08c379a000000000000000000000000000000000000000000000000000000000815260040161274a906148f0565b60405180910390fd5b61275e838383612d18565b6127696000826125b4565b6001600360008573ffffffffffffffffffffffffffffffffffffffff1673ffffffffffffffffffffffffffffffffffffffff16815260200190815260200160002060008282546127b99190614da4565b925050819055506001600360008473ffffffffffffffffffffffffffffffffffffffff1673ffffffffffffffffffffffffffffffffffffffff16815260200190815260200160002060008282546128109190614cc3565b92505081905550816002600083815260200190815260200160002060006101000a81548173ffffffffffffffffffffffffffffffffffffffff021916908373ffffffffffffffffffffffffffffffffffffffff160217905550808273ffffffffffffffffffffffffffffffffffffffff168473ffffffffffffffffffffffffffffffffffffffff167fddf252ad1be2c89b69c2b068fc378daa952ba7f163c4a11628f55a4df523b3ef60405160405180910390a4505050565b6128da6128d4612540565b82612e2c565b612919576040517f08c379a000000000000000000000000000000000000000000000000000000000815260040161291090614b10565b60405180910390fd5b61292483838361266d565b505050565b6000600a60009054906101000a900473ffffffffffffffffffffffffffffffffffffffff16905081600a60006101000a81548173ffffffffffffffffffffffffffffffffffffffff021916908373ffffffffffffffffffffffffffffffffffffffff1602179055508173ffffffffffffffffffffffffffffffffffffffff168173ffffffffffffffffffffffffffffffffffffffff167f8be0079c531659141344cd1fd0a4f28419497f9722a3daafe3b4186f6b6457e060405160405180910390a35050565b612a09828260405180602001604052806000815250612f0a565b5050565b612a1e612a18612540565b83612e2c565b612a5d576040517f08c379a0000000000000000000000000000000000000000000000000000000008152600401612a5490614b10565b60405180910390fd5b612a6984848484612f65565b50505050565b6060600b8054612a7e90614ebc565b80601f0160208091040260200160405190810160405280929190818152602001828054612aaa90614ebc565b8015612af75780601f10612acc57610100808354040283529160200191612af7565b820191906000526020600020905b815481529060010190602001808311612ada57829003601f168201915b5050505050905090565b60606000821415612b49576040518060400160405280600181526020017f30000000000000000000000000000000000000000000000000000000000000008152509050612ca9565b600082905060005b60008214612b7b578080612b6490614eee565b915050600a82612b749190614d19565b9150612b51565b60008167ffffffffffffffff811115612bbd577f4e487b7100000000000000000000000000000000000000000000000000000000600052604160045260246000fd5b6040519080825280601f01601f191660200182016040528015612bef5781602001600182028036833780820191505090505b5090505b60008514612ca257600182612c089190614da4565b9150600a85612c179190614f41565b6030612c239190614cc3565b60f81b818381518110612c5f577f4e487b7100000000000000000000000000000000000000000000000000000000600052603260045260246000fd5b60200101907effffffffffffffffffffffffffffffffffffffffffffffffffffffffffffff1916908160001a905350600a85612c9b9190614d19565b9450612bf3565b8093505050505b919050565b60007f01ffc9a7000000000000000000000000000000000000000000000000000000007bffffffffffffffffffffffffffffffffffffffffffffffffffffffff1916827bffffffffffffffffffffffffffffffffffffffffffffffffffffffff1916149050919050565b612d23838383612fc1565b600073ffffffffffffffffffffffffffffffffffffffff168373ffffffffffffffffffffffffffffffffffffffff161415612d6657612d6181612fc6565b612da5565b8173ffffffffffffffffffffffffffffffffffffffff168373ffffffffffffffffffffffffffffffffffffffff1614612da457612da3838261300f565b5b5b600073ffffffffffffffffffffffffffffffffffffffff168273ffffffffffffffffffffffffffffffffffffffff161415612de857612de38161317c565b612e27565b8273ffffffffffffffffffffffffffffffffffffffff168273ffffffffffffffffffffffffffffffffffffffff1614612e2657612e2582826132bf565b5b5b505050565b6000612e3782612548565b612e76576040517f08c379a0000000000000000000000000000000000000000000000000000000008152600401612e6d90614950565b60405180910390fd5b6000612e81836116aa565b90508073ffffffffffffffffffffffffffffffffffffffff168473ffffffffffffffffffffffffffffffffffffffff161480612ef057508373ffffffffffffffffffffffffffffffffffffffff16612ed884610ccb565b73ffffffffffffffffffffffffffffffffffffffff16145b80612f015750612f008185612196565b5b91505092915050565b612f14838361333e565b612f21600084848461350c565b612f60576040517f08c379a0000000000000000000000000000000000000000000000000000000008152600401612f5790614870565b60405180910390fd5b505050565b612f7084848461266d565b612f7c8484848461350c565b612fbb576040517f08c379a0000000000000000000000000000000000000000000000000000000008152600401612fb290614870565b60405180910390fd5b50505050565b505050565b6008805490506009600083815260200190815260200160002081905550600881908060018154018082558091505060019003906000526020600020016000909190919091505550565b6000600161301c846117ea565b6130269190614da4565b905060006007600084815260200190815260200160002054905081811461310b576000600660008673ffffffffffffffffffffffffffffffffffffffff1673ffffffffffffffffffffffffffffffffffffffff168152602001908152602001600020600084815260200190815260200160002054905080600660008773ffffffffffffffffffffffffffffffffffffffff1673ffffffffffffffffffffffffffffffffffffffff168152602001908152602001600020600084815260200190815260200160002081905550816007600083815260200190815260200160002081905550505b6007600084815260200190815260200160002060009055600660008573ffffffffffffffffffffffffffffffffffffffff1673ffffffffffffffffffffffffffffffffffffffff16815260200190815260200160002060008381526020019081526020016000206000905550505050565b600060016008805490506131909190614da4565b90506000600960008481526020019081526020016000205490506000600883815481106131e6577f4e487b7100000000000000000000000000000000000000000000000000000000600052603260045260246000fd5b90600052602060002001549050806008838154811061322e577f4e487b7100000000000000000000000000000000000000000000000000000000600052603260045260246000fd5b9060005260206000200181905550816009600083815260200190815260200160002081905550600960008581526020019081526020016000206000905560088054806132a3577f4e487b7100000000000000000000000000000000000000000000000000000000600052603160045260246000fd5b6001900381819060005260206000200160009055905550505050565b60006132ca836117ea565b905081600660008573ffffffffffffffffffffffffffffffffffffffff1673ffffffffffffffffffffffffffffffffffffffff168152602001908152602001600020600083815260200190815260200160002081905550806007600084815260200190815260200160002081905550505050565b600073ffffffffffffffffffffffffffffffffffffffff168273ffffffffffffffffffffffffffffffffffffffff1614156133ae576040517f08c379a00000000000000000000000000000000000000000000000000000000081526004016133a590614a10565b60405180910390fd5b6133b781612548565b156133f7576040517f08c379a00000000000000000000000000000000000000000000000000000000081526004016133ee906148b0565b60405180910390fd5b61340360008383612d18565b6001600360008473ffffffffffffffffffffffffffffffffffffffff1673ffffffffffffffffffffffffffffffffffffffff16815260200190815260200160002060008282546134539190614cc3565b92505081905550816002600083815260200190815260200160002060006101000a81548173ffffffffffffffffffffffffffffffffffffffff021916908373ffffffffffffffffffffffffffffffffffffffff160217905550808273ffffffffffffffffffffffffffffffffffffffff16600073ffffffffffffffffffffffffffffffffffffffff167fddf252ad1be2c89b69c2b068fc378daa952ba7f163c4a11628f55a4df523b3ef60405160405180910390a45050565b600061352d8473ffffffffffffffffffffffffffffffffffffffff166136a3565b15613696578373ffffffffffffffffffffffffffffffffffffffff1663150b7a02613556612540565b8786866040518563ffffffff1660e01b8152600401613578949392919061476f565b602060405180830381600087803b15801561359257600080fd5b505af19250505080156135c357506040513d601f19601f820116820180604052508101906135c09190613c19565b60015b613646573d80600081146135f3576040519150601f19603f3d011682016040523d82523d6000602084013e6135f8565b606091505b5060008151141561363e576040517f08c379a000000000000000000000000000000000000000000000000000000000815260040161363590614870565b60405180910390fd5b805181602001fd5b63150b7a0260e01b7bffffffffffffffffffffffffffffffffffffffffffffffffffffffff1916817bffffffffffffffffffffffffffffffffffffffffffffffffffffffff19161491505061369b565b600190505b949350505050565b600080823b905060008111915050919050565b8280546136c290614ebc565b90600052602060002090601f0160209004810192826136e4576000855561372b565b82601f106136fd57805160ff191683800117855561372b565b8280016001018555821561372b579182015b8281111561372a57825182559160200191906001019061370f565b5b50905061373891906137fd565b5090565b508054600082559060005260206000209081019061375a91906137fd565b50565b8280548282559060005260206000209081019282156137ec579160200282015b828111156137eb57823573ffffffffffffffffffffffffffffffffffffffff168260006101000a81548173ffffffffffffffffffffffffffffffffffffffff021916908373ffffffffffffffffffffffffffffffffffffffff1602179055509160200191906001019061377d565b5b5090506137f991906137fd565b5090565b5b808211156138165760008160009055506001016137fe565b5090565b600061382d61382884614bdc565b614bab565b90508281526020810184848401111561384557600080fd5b613850848285614e7a565b509392505050565b600061386b61386684614c0c565b614bab565b90508281526020810184848401111561388357600080fd5b61388e848285614e7a565b509392505050565b6000813590506138a58161503f565b92915050565b60008083601f8401126138bd57600080fd5b8235905067ffffffffffffffff8111156138d657600080fd5b6020830191508360208202830111156138ee57600080fd5b9250929050565b60008135905061390481615056565b92915050565b6000813590506139198161506d565b92915050565b60008135905061392e81615084565b92915050565b60008151905061394381615084565b92915050565b600082601f83011261395a57600080fd5b813561396a84826020860161381a565b91505092915050565b600082601f83011261398457600080fd5b8135613994848260208601613858565b91505092915050565b6000813590506139ac8161509b565b92915050565b6000602082840312156139c457600080fd5b60006139d284828501613896565b91505092915050565b600080604083850312156139ee57600080fd5b60006139fc85828601613896565b9250506020613a0d85828601613896565b9150509250929050565b600080600060608486031215613a2c57600080fd5b6000613a3a86828701613896565b9350506020613a4b86828701613896565b9250506040613a5c8682870161399d565b9150509250925092565b60008060008060808587031215613a7c57600080fd5b6000613a8a87828801613896565b9450506020613a9b87828801613896565b9350506040613aac8782880161399d565b925050606085013567ffffffffffffffff811115613ac957600080fd5b613ad587828801613949565b91505092959194509250565b60008060408385031215613af457600080fd5b6000613b0285828601613896565b9250506020613b13858286016138f5565b9150509250929050565b60008060408385031215613b3057600080fd5b6000613b3e85828601613896565b9250506020613b4f8582860161399d565b9150509250929050565b60008060208385031215613b6c57600080fd5b600083013567ffffffffffffffff811115613b8657600080fd5b613b92858286016138ab565b92509250509250929050565b600060208284031215613bb057600080fd5b6000613bbe848285016138f5565b91505092915050565b600060208284031215613bd957600080fd5b6000613be78482850161390a565b91505092915050565b600060208284031215613c0257600080fd5b6000613c108482850161391f565b91505092915050565b600060208284031215613c2b57600080fd5b6000613c3984828501613934565b91505092915050565b600060208284031215613c5457600080fd5b600082013567ffffffffffffffff811115613c6e57600080fd5b613c7a84828501613973565b91505092915050565b600060208284031215613c9557600080fd5b6000613ca38482850161399d565b91505092915050565b6000613cb883836146ec565b60208301905092915050565b613ccd81614dd8565b82525050565b6000613cde82614c4c565b613ce88185614c7a565b9350613cf383614c3c565b8060005b83811015613d24578151613d0b8882613cac565b9750613d1683614c6d565b925050600181019050613cf7565b5085935050505092915050565b613d3a81614dea565b82525050565b613d4981614df6565b82525050565b613d60613d5b82614df6565b614f37565b82525050565b6000613d7182614c57565b613d7b8185614c8b565b9350613d8b818560208601614e89565b613d948161502e565b840191505092915050565b613da881614e56565b82525050565b6000613db982614c62565b613dc38185614ca7565b9350613dd3818560208601614e89565b613ddc8161502e565b840191505092915050565b6000613df282614c62565b613dfc8185614cb8565b9350613e0c818560208601614e89565b80840191505092915050565b6000613e25602b83614ca7565b91507f455243373231456e756d657261626c653a206f776e657220696e646578206f7560008301527f74206f6620626f756e64730000000000000000000000000000000000000000006020830152604082019050919050565b6000613e8b603283614ca7565b91507f4552433732313a207472616e7366657220746f206e6f6e20455243373231526560008301527f63656976657220696d706c656d656e74657200000000000000000000000000006020830152604082019050919050565b6000613ef1602683614ca7565b91507f4f776e61626c653a206e6577206f776e657220697320746865207a65726f206160008301527f64647265737300000000000000000000000000000000000000000000000000006020830152604082019050919050565b6000613f57601c83614ca7565b91507f4552433732313a20746f6b656e20616c7265616479206d696e746564000000006000830152602082019050919050565b6000613f97601c83614ca7565b91507f6d6178204e4654207065722061646472657373206578636565646564000000006000830152602082019050919050565b6000613fd7602483614ca7565b91507f4552433732313a207472616e7366657220746f20746865207a65726f2061646460008301527f72657373000000000000000000000000000000000000000000000000000000006020830152604082019050919050565b600061403d601983614ca7565b91507f4552433732313a20617070726f766520746f2063616c6c6572000000000000006000830152602082019050919050565b600061407d601583614ca7565b91507f596f7520617265206e6f7420746865206f776e657200000000000000000000006000830152602082019050919050565b60006140bd602c83614ca7565b91507f4552433732313a206f70657261746f7220717565727920666f72206e6f6e657860008301527f697374656e7420746f6b656e00000000000000000000000000000000000000006020830152604082019050919050565b6000614123603883614ca7565b91507f4552433732313a20617070726f76652063616c6c6572206973206e6f74206f7760008301527f6e6572206e6f7220617070726f76656420666f7220616c6c00000000000000006020830152604082019050919050565b6000614189602a83614ca7565b91507f4552433732313a2062616c616e636520717565727920666f7220746865207a6560008301527f726f2061646472657373000000000000000000000000000000000000000000006020830152604082019050919050565b60006141ef602983614ca7565b91507f4552433732313a206f776e657220717565727920666f72206e6f6e657869737460008301527f656e7420746f6b656e00000000000000000000000000000000000000000000006020830152604082019050919050565b6000614255601683614ca7565b91507f6d6178204e4654206c696d6974206578636565646564000000000000000000006000830152602082019050919050565b6000614295602483614ca7565b91507f6d6178206d696e7420616d6f756e74207065722073657373696f6e206578636560008301527f65646564000000000000000000000000000000000000000000000000000000006020830152604082019050919050565b60006142fb602083614ca7565b91507f4552433732313a206d696e7420746f20746865207a65726f20616464726573736000830152602082019050919050565b600061433b602c83614ca7565b91507f4552433732313a20617070726f76656420717565727920666f72206e6f6e657860008301527f697374656e7420746f6b656e00000000000000000000000000000000000000006020830152604082019050919050565b60006143a1602083614ca7565b91507f4f776e61626c653a2063616c6c6572206973206e6f7420746865206f776e65726000830152602082019050919050565b60006143e1601683614ca7565b91507f74686520636f6e747261637420697320706175736564000000000000000000006000830152602082019050919050565b6000614421602983614ca7565b91507f4552433732313a207472616e73666572206f6620746f6b656e2074686174206960008301527f73206e6f74206f776e00000000000000000000000000000000000000000000006020830152604082019050919050565b6000614487602f83614ca7565b91507f4552433732314d657461646174613a2055524920717565727920666f72206e6f60008301527f6e6578697374656e7420746f6b656e00000000000000000000000000000000006020830152604082019050919050565b60006144ed602183614ca7565b91507f4552433732313a20617070726f76616c20746f2063757272656e74206f776e6560008301527f72000000000000000000000000000000000000000000000000000000000000006020830152604082019050919050565b6000614553600083614c9c565b9150600082019050919050565b600061456d601283614ca7565b91507f696e73756666696369656e742066756e647300000000000000000000000000006000830152602082019050919050565b60006145ad603183614ca7565b91507f4552433732313a207472616e736665722063616c6c6572206973206e6f74206f60008301527f776e6572206e6f7220617070726f7665640000000000000000000000000000006020830152604082019050919050565b6000614613602c83614ca7565b91507f455243373231456e756d657261626c653a20676c6f62616c20696e646578206f60008301527f7574206f6620626f756e647300000000000000000000000000000000000000006020830152604082019050919050565b6000614679601783614ca7565b91507f75736572206973206e6f742077686974656c69737465640000000000000000006000830152602082019050919050565b60006146b9601b83614ca7565b91507f6e65656420746f206d696e74206174206c656173742031204e465400000000006000830152602082019050919050565b6146f581614e4c565b82525050565b61470481614e4c565b82525050565b60006147168286613de7565b91506147228285613de7565b915061472e8284613d4f565b602082019150819050949350505050565b600061474a82614546565b9150819050919050565b60006020820190506147696000830184613cc4565b92915050565b60006080820190506147846000830187613cc4565b6147916020830186613cc4565b61479e60408301856146fb565b81810360608301526147b08184613d66565b905095945050505050565b600060208201905081810360008301526147d58184613cd3565b905092915050565b60006020820190506147f26000830184613d31565b92915050565b600060208201905061480d6000830184613d40565b92915050565b60006020820190506148286000830184613d9f565b92915050565b600060208201905081810360008301526148488184613dae565b905092915050565b6000602082019050818103600083015261486981613e18565b9050919050565b6000602082019050818103600083015261488981613e7e565b9050919050565b600060208201905081810360008301526148a981613ee4565b9050919050565b600060208201905081810360008301526148c981613f4a565b9050919050565b600060208201905081810360008301526148e981613f8a565b9050919050565b6000602082019050818103600083015261490981613fca565b9050919050565b6000602082019050818103600083015261492981614030565b9050919050565b6000602082019050818103600083015261494981614070565b9050919050565b60006020820190508181036000830152614969816140b0565b9050919050565b6000602082019050818103600083015261498981614116565b9050919050565b600060208201905081810360008301526149a98161417c565b9050919050565b600060208201905081810360008301526149c9816141e2565b9050919050565b600060208201905081810360008301526149e981614248565b9050919050565b60006020820190508181036000830152614a0981614288565b9050919050565b60006020820190508181036000830152614a29816142ee565b9050919050565b60006020820190508181036000830152614a498161432e565b9050919050565b60006020820190508181036000830152614a6981614394565b9050919050565b60006020820190508181036000830152614a89816143d4565b9050919050565b60006020820190508181036000830152614aa981614414565b9050919050565b60006020820190508181036000830152614ac98161447a565b9050919050565b60006020820190508181036000830152614ae9816144e0565b9050919050565b60006020820190508181036000830152614b0981614560565b9050919050565b60006020820190508181036000830152614b29816145a0565b9050919050565b60006020820190508181036000830152614b4981614606565b9050919050565b60006020820190508181036000830152614b698161466c565b9050919050565b60006020820190508181036000830152614b89816146ac565b9050919050565b6000602082019050614ba560008301846146fb565b92915050565b6000604051905081810181811067ffffffffffffffff82111715614bd257614bd1614fff565b5b8060405250919050565b600067ffffffffffffffff821115614bf757614bf6614fff565b5b601f19601f8301169050602081019050919050565b600067ffffffffffffffff821115614c2757614c26614fff565b5b601f19601f8301169050602081019050919050565b6000819050602082019050919050565b600081519050919050565b600081519050919050565b600081519050919050565b6000602082019050919050565b600082825260208201905092915050565b600082825260208201905092915050565b600081905092915050565b600082825260208201905092915050565b600081905092915050565b6000614cce82614e4c565b9150614cd983614e4c565b9250827fffffffffffffffffffffffffffffffffffffffffffffffffffffffffffffffff03821115614d0e57614d0d614f72565b5b828201905092915050565b6000614d2482614e4c565b9150614d2f83614e4c565b925082614d3f57614d3e614fa1565b5b828204905092915050565b6000614d5582614e4c565b9150614d6083614e4c565b9250817fffffffffffffffffffffffffffffffffffffffffffffffffffffffffffffffff0483118215151615614d9957614d98614f72565b5b828202905092915050565b6000614daf82614e4c565b9150614dba83614e4c565b925082821015614dcd57614dcc614f72565b5b828203905092915050565b6000614de382614e2c565b9050919050565b60008115159050919050565b6000819050919050565b60007fffffffff0000000000000000000000000000000000000000000000000000000082169050919050565b600073ffffffffffffffffffffffffffffffffffffffff82169050919050565b6000819050919050565b6000614e6182614e68565b9050919050565b6000614e7382614e2c565b9050919050565b82818337600083830152505050565b60005b83811015614ea7578082015181840152602081019050614e8c565b83811115614eb6576000848401525b50505050565b60006002820490506001821680614ed457607f821691505b60208210811415614ee857614ee7614fd0565b5b50919050565b6000614ef982614e4c565b91507fffffffffffffffffffffffffffffffffffffffffffffffffffffffffffffffff821415614f2c57614f2b614f72565b5b600182019050919050565b6000819050919050565b6000614f4c82614e4c565b9150614f5783614e4c565b925082614f6757614f66614fa1565b5b828206905092915050565b7f4e487b7100000000000000000000000000000000000000000000000000000000600052601160045260246000fd5b7f4e487b7100000000000000000000000000000000000000000000000000000000600052601260045260246000fd5b7f4e487b7100000000000000000000000000000000000000000000000000000000600052602260045260246000fd5b7f4e487b7100000000000000000000000000000000000000000000000000000000600052604160045260246000fd5b6000601f19601f8301169050919050565b61504881614dd8565b811461505357600080fd5b50565b61505f81614dea565b811461506a57600080fd5b50565b61507681614df6565b811461508157600080fd5b50565b61508d81614e00565b811461509857600080fd5b50565b6150a481614e4c565b81146150af57600080fd5b5056fe596f75206a757374206275726e20796f7572204c656d6d7920467269656e64203a2820a264697066735822122052e33cf547507ec9032124e757b1b76a0edad211bf69e6e2dccbbc61bda0eed764736f6c63430008000033",
  "linkReferences": {},
  "deployedLinkReferences": {}
}